{
	"votacion.sol": {
		"Voting": {
			"abi": [
				{
					"inputs": [],
					"stateMutability": "nonpayable",
					"type": "constructor"
				},
				{
					"inputs": [
						{
							"internalType": "uint256",
							"name": "_id",
							"type": "uint256"
						}
					],
					"name": "leerVotante",
					"outputs": [
						{
							"internalType": "uint256",
							"name": "",
							"type": "uint256"
						},
						{
							"internalType": "string",
							"name": "",
							"type": "string"
						},
						{
							"internalType": "uint256",
							"name": "",
							"type": "uint256"
						},
						{
							"internalType": "bool",
							"name": "",
							"type": "bool"
						},
						{
							"internalType": "bool",
							"name": "",
							"type": "bool"
						}
					],
					"stateMutability": "view",
					"type": "function"
				},
				{
					"inputs": [],
					"name": "nombrePropuestaGanadora",
					"outputs": [
						{
							"internalType": "bytes32",
							"name": "winnerName_",
							"type": "bytes32"
						}
					],
					"stateMutability": "view",
					"type": "function"
				},
				{
					"inputs": [],
					"name": "propuestaGanadora",
					"outputs": [
						{
							"internalType": "uint256",
							"name": "propuestaGanadora_",
							"type": "uint256"
						}
					],
					"stateMutability": "view",
					"type": "function"
				},
				{
					"inputs": [
						{
							"internalType": "uint256",
							"name": "",
							"type": "uint256"
						}
					],
					"name": "propuestas",
					"outputs": [
						{
							"internalType": "uint256",
							"name": "id",
							"type": "uint256"
						},
						{
							"internalType": "bytes32",
							"name": "name",
							"type": "bytes32"
						},
						{
							"internalType": "uint256",
							"name": "votos",
							"type": "uint256"
						}
					],
					"stateMutability": "view",
					"type": "function"
				},
				{
					"inputs": [
						{
							"internalType": "string",
							"name": "_nombre",
							"type": "string"
						},
						{
							"internalType": "uint256",
							"name": "_edad",
							"type": "uint256"
						}
					],
					"name": "registroVotante",
					"outputs": [],
					"stateMutability": "nonpayable",
					"type": "function"
				},
				{
					"inputs": [
						{
							"internalType": "address",
							"name": "_votante",
							"type": "address"
						}
					],
					"name": "validarDerechoVotar",
					"outputs": [],
					"stateMutability": "nonpayable",
					"type": "function"
				},
				{
					"inputs": [
						{
							"internalType": "address",
							"name": "",
							"type": "address"
						},
						{
							"internalType": "uint256",
							"name": "",
							"type": "uint256"
						}
					],
					"name": "votantes",
					"outputs": [
						{
							"internalType": "uint256",
							"name": "identificacion",
							"type": "uint256"
						},
						{
							"internalType": "string",
							"name": "nombre",
							"type": "string"
						},
						{
							"internalType": "uint256",
							"name": "edad",
							"type": "uint256"
						},
						{
							"internalType": "bool",
							"name": "yaVoto",
							"type": "bool"
						},
						{
							"internalType": "bool",
							"name": "puedeVotar",
							"type": "bool"
						}
					],
					"stateMutability": "view",
					"type": "function"
				},
				{
					"inputs": [
						{
							"internalType": "uint256",
							"name": "_ipropuesta",
							"type": "uint256"
						}
					],
					"name": "votar",
					"outputs": [],
					"stateMutability": "nonpayable",
					"type": "function"
				}
			],
			"devdoc": {
				"kind": "dev",
				"methods": {
					"nombrePropuestaGanadora()": {
						"details": "Invoca winningProposal() que recupeera el indice de la propuesta ganadora",
						"returns": {
							"winnerName_": "el nombre deel ganador"
						}
					},
					"propuestaGanadora()": {
						"details": "Calcular la propuesta ganadora.",
						"returns": {
							"propuestaGanadora_": "Indice de la proposición ganadora"
						}
					}
				},
				"version": 1
			},
			"evm": {
				"assembly": "    /* \"votacion.sol\":72:5323  contract Voting {\r... */\n  mstore(0x40, 0x80)\n    /* \"votacion.sol\":145:146  0 */\n  0x00\n    /* \"votacion.sol\":124:146  uint256 totalVotos = 0 */\n  dup1\n  sstore\n    /* \"votacion.sol\":262:263  1 */\n  0x01\n    /* \"votacion.sol\":248:263  uint nextId = 1 */\n  0x02\n  sstore\n    /* \"votacion.sol\":3023:3132  propuesta({\r... */\n  mload(0x40)\n  dup1\n  0x60\n  add\n  0x40\n  mstore\n  dup1\n    /* \"votacion.sol\":3051:3052  1 */\n  0x01\n    /* \"votacion.sol\":3023:3132  propuesta({\r... */\n  dup2\n  mstore\n  0x20\n  add\n  0x486f73706974616c2070617261204d6173636f74617300000000000000000000\n  dup2\n  mstore\n  0x20\n  add\n    /* \"votacion.sol\":3119:3120  0 */\n  0x00\n    /* \"votacion.sol\":3023:3132  propuesta({\r... */\n  dup2\n  mstore\n  pop\n    /* \"votacion.sol\":2998:3132  propuesta  propuestaUno= propuesta({\r... */\n  0x04\n  0x00\n  dup3\n  add\n  mload\n  dup2\n  0x00\n  add\n  sstore\n  0x20\n  dup3\n  add\n  mload\n  dup2\n  0x01\n  add\n  sstore\n  0x40\n  dup3\n  add\n  mload\n  dup2\n  0x02\n  add\n  sstore\n  pop\n  pop\n    /* \"votacion.sol\":3168:3281  propuesta({\r... */\n  mload(0x40)\n  dup1\n  0x60\n  add\n  0x40\n  mstore\n  dup1\n    /* \"votacion.sol\":3196:3197  2 */\n  0x02\n    /* \"votacion.sol\":3168:3281  propuesta({\r... */\n  dup2\n  mstore\n  0x20\n  add\n  0x4375696461646f2064656c206d6564696f20616d6269656e7465000000000000\n  dup2\n  mstore\n  0x20\n  add\n    /* \"votacion.sol\":3268:3269  0 */\n  0x00\n    /* \"votacion.sol\":3168:3281  propuesta({\r... */\n  dup2\n  mstore\n  pop\n    /* \"votacion.sol\":3143:3281  propuesta  propuestaDos= propuesta({\r... */\n  0x07\n  0x00\n  dup3\n  add\n  mload\n  dup2\n  0x00\n  add\n  sstore\n  0x20\n  dup3\n  add\n  mload\n  dup2\n  0x01\n  add\n  sstore\n  0x40\n  dup3\n  add\n  mload\n  dup2\n  0x02\n  add\n  sstore\n  pop\n  pop\n    /* \"votacion.sol\":681:745  constructor(){\r... */\n  callvalue\n  dup1\n  iszero\n  tag_1\n  jumpi\n  0x00\n  dup1\n  revert\ntag_1:\n  pop\n    /* \"votacion.sol\":723:733  msg.sender */\n  caller\n    /* \"votacion.sol\":709:720  propietario */\n  0x01\n  0x00\n    /* \"votacion.sol\":709:733  propietario = msg.sender */\n  0x0100\n  exp\n  dup2\n  sload\n  dup2\n  0xffffffffffffffffffffffffffffffffffffffff\n  mul\n  not\n  and\n  swap1\n  dup4\n  0xffffffffffffffffffffffffffffffffffffffff\n  and\n  mul\n  or\n  swap1\n  sstore\n  pop\n    /* \"votacion.sol\":72:5323  contract Voting {\r... */\n  dataSize(sub_0)\n  dup1\n  dataOffset(sub_0)\n  0x00\n  codecopy\n  0x00\n  return\nstop\n\nsub_0: assembly {\n        /* \"votacion.sol\":72:5323  contract Voting {\r... */\n      mstore(0x40, 0x80)\n      callvalue\n      dup1\n      iszero\n      tag_1\n      jumpi\n      0x00\n      dup1\n      revert\n    tag_1:\n      pop\n      jumpi(tag_2, lt(calldatasize, 0x04))\n      shr(0xe0, calldataload(0x00))\n      dup1\n      0x6097e216\n      gt\n      tag_11\n      jumpi\n      dup1\n      0x6097e216\n      eq\n      tag_7\n      jumpi\n      dup1\n      0x8bdeb3c5\n      eq\n      tag_8\n      jumpi\n      dup1\n      0x8d8aab9d\n      eq\n      tag_9\n      jumpi\n      dup1\n      0xae90029b\n      eq\n      tag_10\n      jumpi\n      jump(tag_2)\n    tag_11:\n      dup1\n      0x208d748f\n      eq\n      tag_3\n      jumpi\n      dup1\n      0x20bad571\n      eq\n      tag_4\n      jumpi\n      dup1\n      0x21606831\n      eq\n      tag_5\n      jumpi\n      dup1\n      0x27d9b2a5\n      eq\n      tag_6\n      jumpi\n    tag_2:\n      0x00\n      dup1\n      revert\n        /* \"votacion.sol\":3449:3772  function validarDerechoVotar (address _votante) public validarPropietario {\r... */\n    tag_3:\n      tag_12\n      0x04\n      dup1\n      calldatasize\n      sub\n      dup2\n      add\n      swap1\n      tag_13\n      swap2\n      swap1\n      tag_14\n      jump\t// in\n    tag_13:\n      tag_15\n      jump\t// in\n    tag_12:\n      stop\n        /* \"votacion.sol\":1316:1504  function registroVotante(string memory _nombre, uint _edad) public{\r... */\n    tag_4:\n      tag_16\n      0x04\n      dup1\n      calldatasize\n      sub\n      dup2\n      add\n      swap1\n      tag_17\n      swap2\n      swap1\n      tag_18\n      jump\t// in\n    tag_17:\n      tag_19\n      jump\t// in\n    tag_16:\n      stop\n        /* \"votacion.sol\":3784:4396  function votar(uint256 _ipropuesta) public {\r... */\n    tag_5:\n      tag_20\n      0x04\n      dup1\n      calldatasize\n      sub\n      dup2\n      add\n      swap1\n      tag_21\n      swap2\n      swap1\n      tag_22\n      jump\t// in\n    tag_21:\n      tag_23\n      jump\t// in\n    tag_20:\n      stop\n        /* \"votacion.sol\":4555:4982  function propuestaGanadora() view public returns (uint propuestaGanadora_){\r... */\n    tag_6:\n      tag_24\n      tag_25\n      jump\t// in\n    tag_24:\n      mload(0x40)\n      tag_26\n      swap2\n      swap1\n      tag_27\n      jump\t// in\n    tag_26:\n      mload(0x40)\n      dup1\n      swap2\n      sub\n      swap1\n      return\n        /* \"votacion.sol\":3294:3323  propuesta[] public propuestas */\n    tag_7:\n      tag_28\n      0x04\n      dup1\n      calldatasize\n      sub\n      dup2\n      add\n      swap1\n      tag_29\n      swap2\n      swap1\n      tag_22\n      jump\t// in\n    tag_29:\n      tag_30\n      jump\t// in\n    tag_28:\n      mload(0x40)\n      tag_31\n      swap4\n      swap3\n      swap2\n      swap1\n      tag_32\n      jump\t// in\n    tag_31:\n      mload(0x40)\n      dup1\n      swap2\n      sub\n      swap1\n      return\n        /* \"votacion.sol\":2076:2662  function leerVotante(uint _id) public view returns (uint, string memory, uint, bool, bool){\r... */\n    tag_8:\n      tag_33\n      0x04\n      dup1\n      calldatasize\n      sub\n      dup2\n      add\n      swap1\n      tag_34\n      swap2\n      swap1\n      tag_22\n      jump\t// in\n    tag_34:\n      tag_35\n      jump\t// in\n    tag_33:\n      mload(0x40)\n      tag_36\n      swap6\n      swap5\n      swap4\n      swap3\n      swap2\n      swap1\n      tag_37\n      jump\t// in\n    tag_36:\n      mload(0x40)\n      dup1\n      swap2\n      sub\n      swap1\n      return\n        /* \"votacion.sol\":1184:1229  mapping(address => votante[]) public votantes */\n    tag_9:\n      tag_38\n      0x04\n      dup1\n      calldatasize\n      sub\n      dup2\n      add\n      swap1\n      tag_39\n      swap2\n      swap1\n      tag_40\n      jump\t// in\n    tag_39:\n      tag_41\n      jump\t// in\n    tag_38:\n      mload(0x40)\n      tag_42\n      swap6\n      swap5\n      swap4\n      swap3\n      swap2\n      swap1\n      tag_37\n      jump\t// in\n    tag_42:\n      mload(0x40)\n      dup1\n      swap2\n      sub\n      swap1\n      return\n        /* \"votacion.sol\":5164:5318  function nombrePropuestaGanadora() public view returns (bytes32 winnerName_) {\r... */\n    tag_10:\n      tag_43\n      tag_44\n      jump\t// in\n    tag_43:\n      mload(0x40)\n      tag_45\n      swap2\n      swap1\n      tag_46\n      jump\t// in\n    tag_45:\n      mload(0x40)\n      dup1\n      swap2\n      sub\n      swap1\n      return\n        /* \"votacion.sol\":3449:3772  function validarDerechoVotar (address _votante) public validarPropietario {\r... */\n    tag_15:\n        /* \"votacion.sol\":537:548  propietario */\n      0x01\n      0x00\n      swap1\n      sload\n      swap1\n      0x0100\n      exp\n      swap1\n      div\n      0xffffffffffffffffffffffffffffffffffffffff\n      and\n        /* \"votacion.sol\":523:548  msg.sender == propietario */\n      0xffffffffffffffffffffffffffffffffffffffff\n      and\n        /* \"votacion.sol\":523:533  msg.sender */\n      caller\n        /* \"votacion.sol\":523:548  msg.sender == propietario */\n      0xffffffffffffffffffffffffffffffffffffffff\n      and\n      eq\n        /* \"votacion.sol\":515:580  require(msg.sender == propietario, \"Tu no eres el Propietario !\") */\n      tag_48\n      jumpi\n      mload(0x40)\n      0x08c379a000000000000000000000000000000000000000000000000000000000\n      dup2\n      mstore\n      0x04\n      add\n      tag_49\n      swap1\n      tag_50\n      jump\t// in\n    tag_49:\n      mload(0x40)\n      dup1\n      swap2\n      sub\n      swap1\n      revert\n    tag_48:\n        /* \"votacion.sol\":3543:3549  uint v */\n      0x00\n        /* \"votacion.sol\":3538:3761  for (uint v = 0; v < votantes[msg.sender].length; v++) { \r... */\n    tag_52:\n        /* \"votacion.sol\":3559:3567  votantes */\n      0x03\n        /* \"votacion.sol\":3559:3579  votantes[msg.sender] */\n      0x00\n        /* \"votacion.sol\":3568:3578  msg.sender */\n      caller\n        /* \"votacion.sol\":3559:3579  votantes[msg.sender] */\n      0xffffffffffffffffffffffffffffffffffffffff\n      and\n      0xffffffffffffffffffffffffffffffffffffffff\n      and\n      dup2\n      mstore\n      0x20\n      add\n      swap1\n      dup2\n      mstore\n      0x20\n      add\n      0x00\n      keccak256\n        /* \"votacion.sol\":3559:3586  votantes[msg.sender].length */\n      dup1\n      sload\n      swap1\n      pop\n        /* \"votacion.sol\":3555:3556  v */\n      dup2\n        /* \"votacion.sol\":3555:3586  v < votantes[msg.sender].length */\n      lt\n        /* \"votacion.sol\":3538:3761  for (uint v = 0; v < votantes[msg.sender].length; v++) { \r... */\n      iszero\n      tag_53\n      jumpi\n        /* \"votacion.sol\":3623:3631  votantes */\n      0x03\n        /* \"votacion.sol\":3623:3643  votantes[msg.sender] */\n      0x00\n        /* \"votacion.sol\":3632:3642  msg.sender */\n      caller\n        /* \"votacion.sol\":3623:3643  votantes[msg.sender] */\n      0xffffffffffffffffffffffffffffffffffffffff\n      and\n      0xffffffffffffffffffffffffffffffffffffffff\n      and\n      dup2\n      mstore\n      0x20\n      add\n      swap1\n      dup2\n      mstore\n      0x20\n      add\n      0x00\n      keccak256\n        /* \"votacion.sol\":3644:3645  v */\n      dup2\n        /* \"votacion.sol\":3623:3646  votantes[msg.sender][v] */\n      dup2\n      sload\n      dup2\n      lt\n      tag_55\n      jumpi\n      tag_56\n      tag_57\n      jump\t// in\n    tag_56:\n    tag_55:\n      swap1\n      0x00\n      mstore\n      keccak256(0x00, 0x20)\n      swap1\n      0x04\n      mul\n      add\n        /* \"votacion.sol\":3623:3657  votantes[msg.sender][v].puedeVotar */\n      0x03\n      add\n      0x01\n      swap1\n      sload\n      swap1\n      0x0100\n      exp\n      swap1\n      div\n      0xff\n      and\n        /* \"votacion.sol\":3622:3657  !votantes[msg.sender][v].puedeVotar */\n      iszero\n        /* \"votacion.sol\":3613:3687  require (!votantes[msg.sender][v].puedeVotar, \"Ya tienes derecho a votar\") */\n      tag_59\n      jumpi\n      mload(0x40)\n      0x08c379a000000000000000000000000000000000000000000000000000000000\n      dup2\n      mstore\n      0x04\n      add\n      tag_60\n      swap1\n      tag_61\n      jump\t// in\n    tag_60:\n      mload(0x40)\n      dup1\n      swap2\n      sub\n      swap1\n      revert\n    tag_59:\n        /* \"votacion.sol\":3741:3745  true */\n      0x01\n        /* \"votacion.sol\":3706:3714  votantes */\n      0x03\n        /* \"votacion.sol\":3706:3724  votantes[_votante] */\n      0x00\n        /* \"votacion.sol\":3715:3723  _votante */\n      dup5\n        /* \"votacion.sol\":3706:3724  votantes[_votante] */\n      0xffffffffffffffffffffffffffffffffffffffff\n      and\n      0xffffffffffffffffffffffffffffffffffffffff\n      and\n      dup2\n      mstore\n      0x20\n      add\n      swap1\n      dup2\n      mstore\n      0x20\n      add\n      0x00\n      keccak256\n        /* \"votacion.sol\":3725:3726  v */\n      dup3\n        /* \"votacion.sol\":3706:3727  votantes[_votante][v] */\n      dup2\n      sload\n      dup2\n      lt\n      tag_62\n      jumpi\n      tag_63\n      tag_57\n      jump\t// in\n    tag_63:\n    tag_62:\n      swap1\n      0x00\n      mstore\n      keccak256(0x00, 0x20)\n      swap1\n      0x04\n      mul\n      add\n        /* \"votacion.sol\":3706:3738  votantes[_votante][v].puedeVotar */\n      0x03\n      add\n      0x01\n        /* \"votacion.sol\":3706:3745  votantes[_votante][v].puedeVotar = true */\n      0x0100\n      exp\n      dup2\n      sload\n      dup2\n      0xff\n      mul\n      not\n      and\n      swap1\n      dup4\n      iszero\n      iszero\n      mul\n      or\n      swap1\n      sstore\n      pop\n        /* \"votacion.sol\":3588:3591  v++ */\n      dup1\n      dup1\n      tag_65\n      swap1\n      tag_66\n      jump\t// in\n    tag_65:\n      swap2\n      pop\n      pop\n        /* \"votacion.sol\":3538:3761  for (uint v = 0; v < votantes[msg.sender].length; v++) { \r... */\n      jump(tag_52)\n    tag_53:\n      pop\n        /* \"votacion.sol\":3449:3772  function validarDerechoVotar (address _votante) public validarPropietario {\r... */\n      pop\n      jump\t// out\n        /* \"votacion.sol\":1316:1504  function registroVotante(string memory _nombre, uint _edad) public{\r... */\n    tag_19:\n        /* \"votacion.sol\":1397:1405  votantes */\n      0x03\n        /* \"votacion.sol\":1397:1417  votantes[msg.sender] */\n      0x00\n        /* \"votacion.sol\":1406:1416  msg.sender */\n      caller\n        /* \"votacion.sol\":1397:1417  votantes[msg.sender] */\n      0xffffffffffffffffffffffffffffffffffffffff\n      and\n      0xffffffffffffffffffffffffffffffffffffffff\n      and\n      dup2\n      mstore\n      0x20\n      add\n      swap1\n      dup2\n      mstore\n      0x20\n      add\n      0x00\n      keccak256\n        /* \"votacion.sol\":1423:1468  votante(nextId, _nombre, _edad, false, false) */\n      mload(0x40)\n      dup1\n      0xa0\n      add\n      0x40\n      mstore\n      dup1\n        /* \"votacion.sol\":1431:1437  nextId */\n      sload(0x02)\n        /* \"votacion.sol\":1423:1468  votante(nextId, _nombre, _edad, false, false) */\n      dup2\n      mstore\n      0x20\n      add\n        /* \"votacion.sol\":1439:1446  _nombre */\n      dup5\n        /* \"votacion.sol\":1423:1468  votante(nextId, _nombre, _edad, false, false) */\n      dup2\n      mstore\n      0x20\n      add\n        /* \"votacion.sol\":1448:1453  _edad */\n      dup4\n        /* \"votacion.sol\":1423:1468  votante(nextId, _nombre, _edad, false, false) */\n      dup2\n      mstore\n      0x20\n      add\n        /* \"votacion.sol\":1455:1460  false */\n      0x00\n        /* \"votacion.sol\":1423:1468  votante(nextId, _nombre, _edad, false, false) */\n      iszero\n      iszero\n      dup2\n      mstore\n      0x20\n      add\n        /* \"votacion.sol\":1462:1467  false */\n      0x00\n        /* \"votacion.sol\":1423:1468  votante(nextId, _nombre, _edad, false, false) */\n      iszero\n      iszero\n      dup2\n      mstore\n      pop\n        /* \"votacion.sol\":1397:1469  votantes[msg.sender].push(votante(nextId, _nombre, _edad, false, false)) */\n      swap1\n      dup1\n      0x01\n      dup2\n      sload\n      add\n      dup1\n      dup3\n      sstore\n      dup1\n      swap2\n      pop\n      pop\n      0x01\n      swap1\n      sub\n      swap1\n      0x00\n      mstore\n      keccak256(0x00, 0x20)\n      swap1\n      0x04\n      mul\n      add\n      0x00\n      swap1\n      swap2\n      swap1\n      swap2\n      swap1\n      swap2\n      pop\n      0x00\n      dup3\n      add\n      mload\n      dup2\n      0x00\n      add\n      sstore\n      0x20\n      dup3\n      add\n      mload\n      dup2\n      0x01\n      add\n      swap1\n      dup1\n      mload\n      swap1\n      0x20\n      add\n      swap1\n      tag_69\n      swap3\n      swap2\n      swap1\n      tag_70\n      jump\t// in\n    tag_69:\n      pop\n      0x40\n      dup3\n      add\n      mload\n      dup2\n      0x02\n      add\n      sstore\n      0x60\n      dup3\n      add\n      mload\n      dup2\n      0x03\n      add\n      exp(0x0100, 0x00)\n      dup2\n      sload\n      dup2\n      0xff\n      mul\n      not\n      and\n      swap1\n      dup4\n      iszero\n      iszero\n      mul\n      or\n      swap1\n      sstore\n      pop\n      0x80\n      dup3\n      add\n      mload\n      dup2\n      0x03\n      add\n      exp(0x0100, 0x01)\n      dup2\n      sload\n      dup2\n      0xff\n      mul\n      not\n      and\n      swap1\n      dup4\n      iszero\n      iszero\n      mul\n      or\n      swap1\n      sstore\n      pop\n      pop\n      pop\n        /* \"votacion.sol\":1484:1490  nextId */\n      0x02\n      0x00\n        /* \"votacion.sol\":1484:1492  nextId++ */\n      dup2\n      sload\n      dup1\n      swap3\n      swap2\n      swap1\n      tag_71\n      swap1\n      tag_66\n      jump\t// in\n    tag_71:\n      swap2\n      swap1\n      pop\n      sstore\n      pop\n        /* \"votacion.sol\":1316:1504  function registroVotante(string memory _nombre, uint _edad) public{\r... */\n      pop\n      pop\n      jump\t// out\n        /* \"votacion.sol\":3784:4396  function votar(uint256 _ipropuesta) public {\r... */\n    tag_23:\n        /* \"votacion.sol\":3847:3853  uint m */\n      0x00\n        /* \"votacion.sol\":3842:4215  for (uint m = 0; m < votantes[msg.sender].length; m++) {\r... */\n    tag_73:\n        /* \"votacion.sol\":3863:3871  votantes */\n      0x03\n        /* \"votacion.sol\":3863:3883  votantes[msg.sender] */\n      0x00\n        /* \"votacion.sol\":3872:3882  msg.sender */\n      caller\n        /* \"votacion.sol\":3863:3883  votantes[msg.sender] */\n      0xffffffffffffffffffffffffffffffffffffffff\n      and\n      0xffffffffffffffffffffffffffffffffffffffff\n      and\n      dup2\n      mstore\n      0x20\n      add\n      swap1\n      dup2\n      mstore\n      0x20\n      add\n      0x00\n      keccak256\n        /* \"votacion.sol\":3863:3890  votantes[msg.sender].length */\n      dup1\n      sload\n      swap1\n      pop\n        /* \"votacion.sol\":3859:3860  m */\n      dup2\n        /* \"votacion.sol\":3859:3890  m < votantes[msg.sender].length */\n      lt\n        /* \"votacion.sol\":3842:4215  for (uint m = 0; m < votantes[msg.sender].length; m++) {\r... */\n      iszero\n      tag_74\n      jumpi\n        /* \"votacion.sol\":3925:3933  votantes */\n      0x03\n        /* \"votacion.sol\":3925:3945  votantes[msg.sender] */\n      0x00\n        /* \"votacion.sol\":3934:3944  msg.sender */\n      caller\n        /* \"votacion.sol\":3925:3945  votantes[msg.sender] */\n      0xffffffffffffffffffffffffffffffffffffffff\n      and\n      0xffffffffffffffffffffffffffffffffffffffff\n      and\n      dup2\n      mstore\n      0x20\n      add\n      swap1\n      dup2\n      mstore\n      0x20\n      add\n      0x00\n      keccak256\n        /* \"votacion.sol\":3946:3947  m */\n      dup2\n        /* \"votacion.sol\":3925:3948  votantes[msg.sender][m] */\n      dup2\n      sload\n      dup2\n      lt\n      tag_76\n      jumpi\n      tag_77\n      tag_57\n      jump\t// in\n    tag_77:\n    tag_76:\n      swap1\n      0x00\n      mstore\n      keccak256(0x00, 0x20)\n      swap1\n      0x04\n      mul\n      add\n        /* \"votacion.sol\":3925:3959  votantes[msg.sender][m].puedeVotar */\n      0x03\n      add\n      0x01\n      swap1\n      sload\n      swap1\n      0x0100\n      exp\n      swap1\n      div\n      0xff\n      and\n        /* \"votacion.sol\":3916:3989  require (votantes[msg.sender][m].puedeVotar, \"No tienes derecho a Votar\") */\n      tag_79\n      jumpi\n      mload(0x40)\n      0x08c379a000000000000000000000000000000000000000000000000000000000\n      dup2\n      mstore\n      0x04\n      add\n      tag_80\n      swap1\n      tag_81\n      jump\t// in\n    tag_80:\n      mload(0x40)\n      dup1\n      swap2\n      sub\n      swap1\n      revert\n    tag_79:\n        /* \"votacion.sol\":4018:4026  votantes */\n      0x03\n        /* \"votacion.sol\":4018:4038  votantes[msg.sender] */\n      0x00\n        /* \"votacion.sol\":4027:4037  msg.sender */\n      caller\n        /* \"votacion.sol\":4018:4038  votantes[msg.sender] */\n      0xffffffffffffffffffffffffffffffffffffffff\n      and\n      0xffffffffffffffffffffffffffffffffffffffff\n      and\n      dup2\n      mstore\n      0x20\n      add\n      swap1\n      dup2\n      mstore\n      0x20\n      add\n      0x00\n      keccak256\n        /* \"votacion.sol\":4039:4040  m */\n      dup2\n        /* \"votacion.sol\":4018:4041  votantes[msg.sender][m] */\n      dup2\n      sload\n      dup2\n      lt\n      tag_82\n      jumpi\n      tag_83\n      tag_57\n      jump\t// in\n    tag_83:\n    tag_82:\n      swap1\n      0x00\n      mstore\n      keccak256(0x00, 0x20)\n      swap1\n      0x04\n      mul\n      add\n        /* \"votacion.sol\":4018:4048  votantes[msg.sender][m].yaVoto */\n      0x03\n      add\n      0x00\n      swap1\n      sload\n      swap1\n      0x0100\n      exp\n      swap1\n      div\n      0xff\n      and\n        /* \"votacion.sol\":4017:4048  !votantes[msg.sender][m].yaVoto */\n      iszero\n        /* \"votacion.sol\":4008:4091  require (!votantes[msg.sender][m].yaVoto, \"Ya votaste, no puedes volver a hacerlo\") */\n      tag_85\n      jumpi\n      mload(0x40)\n      0x08c379a000000000000000000000000000000000000000000000000000000000\n      dup2\n      mstore\n      0x04\n      add\n      tag_86\n      swap1\n      tag_87\n      jump\t// in\n    tag_86:\n      mload(0x40)\n      dup1\n      swap2\n      sub\n      swap1\n      revert\n    tag_85:\n        /* \"votacion.sol\":4145:4149  true */\n      0x01\n        /* \"votacion.sol\":4112:4120  votantes */\n      0x03\n        /* \"votacion.sol\":4112:4132  votantes[msg.sender] */\n      0x00\n        /* \"votacion.sol\":4121:4131  msg.sender */\n      caller\n        /* \"votacion.sol\":4112:4132  votantes[msg.sender] */\n      0xffffffffffffffffffffffffffffffffffffffff\n      and\n      0xffffffffffffffffffffffffffffffffffffffff\n      and\n      dup2\n      mstore\n      0x20\n      add\n      swap1\n      dup2\n      mstore\n      0x20\n      add\n      0x00\n      keccak256\n        /* \"votacion.sol\":4133:4134  m */\n      dup3\n        /* \"votacion.sol\":4112:4135  votantes[msg.sender][m] */\n      dup2\n      sload\n      dup2\n      lt\n      tag_88\n      jumpi\n      tag_89\n      tag_57\n      jump\t// in\n    tag_89:\n    tag_88:\n      swap1\n      0x00\n      mstore\n      keccak256(0x00, 0x20)\n      swap1\n      0x04\n      mul\n      add\n        /* \"votacion.sol\":4112:4142  votantes[msg.sender][m].yaVoto */\n      0x03\n      add\n      0x00\n        /* \"votacion.sol\":4112:4149  votantes[msg.sender][m].yaVoto = true */\n      0x0100\n      exp\n      dup2\n      sload\n      dup2\n      0xff\n      mul\n      not\n      and\n      swap1\n      dup4\n      iszero\n      iszero\n      mul\n      or\n      swap1\n      sstore\n      pop\n        /* \"votacion.sol\":4182:4183  1 */\n      0x01\n        /* \"votacion.sol\":4168:4178  totalVotos */\n      0x00\n      dup1\n        /* \"votacion.sol\":4168:4183  totalVotos += 1 */\n      dup3\n      dup3\n      sload\n      tag_91\n      swap2\n      swap1\n      tag_92\n      jump\t// in\n    tag_91:\n      swap3\n      pop\n      pop\n      dup2\n      swap1\n      sstore\n      pop\n        /* \"votacion.sol\":3892:3895  m++ */\n      dup1\n      dup1\n      tag_93\n      swap1\n      tag_66\n      jump\t// in\n    tag_93:\n      swap2\n      pop\n      pop\n        /* \"votacion.sol\":3842:4215  for (uint m = 0; m < votantes[msg.sender].length; m++) {\r... */\n      jump(tag_73)\n    tag_74:\n      pop\n        /* \"votacion.sol\":4254:4265  _ipropuesta */\n      dup1\n        /* \"votacion.sol\":4235:4247  propuestaUno */\n      0x04\n        /* \"votacion.sol\":4235:4250  propuestaUno.id */\n      0x00\n      add\n      sload\n        /* \"votacion.sol\":4235:4265  propuestaUno.id == _ipropuesta */\n      eq\n        /* \"votacion.sol\":4231:4385  if( propuestaUno.id == _ipropuesta){\r... */\n      iszero\n      tag_94\n      jumpi\n        /* \"votacion.sol\":4307:4308  1 */\n      0x01\n        /* \"votacion.sol\":4285:4297  propuestaUno */\n      0x04\n        /* \"votacion.sol\":4285:4303  propuestaUno.votos */\n      0x02\n      add\n      0x00\n        /* \"votacion.sol\":4285:4308  propuestaUno.votos += 1 */\n      dup3\n      dup3\n      sload\n      tag_95\n      swap2\n      swap1\n      tag_92\n      jump\t// in\n    tag_95:\n      swap3\n      pop\n      pop\n      dup2\n      swap1\n      sstore\n      pop\n        /* \"votacion.sol\":4231:4385  if( propuestaUno.id == _ipropuesta){\r... */\n      jump(tag_96)\n    tag_94:\n        /* \"votacion.sol\":4368:4369  1 */\n      0x01\n        /* \"votacion.sol\":4347:4359  propuestaDos */\n      0x07\n        /* \"votacion.sol\":4347:4365  propuestaDos.votos */\n      0x02\n      add\n      0x00\n        /* \"votacion.sol\":4347:4369  propuestaDos.votos +=1 */\n      dup3\n      dup3\n      sload\n      tag_97\n      swap2\n      swap1\n      tag_92\n      jump\t// in\n    tag_97:\n      swap3\n      pop\n      pop\n      dup2\n      swap1\n      sstore\n      pop\n        /* \"votacion.sol\":4231:4385  if( propuestaUno.id == _ipropuesta){\r... */\n    tag_96:\n        /* \"votacion.sol\":3784:4396  function votar(uint256 _ipropuesta) public {\r... */\n      pop\n      jump\t// out\n        /* \"votacion.sol\":4555:4982  function propuestaGanadora() view public returns (uint propuestaGanadora_){\r... */\n    tag_25:\n        /* \"votacion.sol\":4605:4628  uint propuestaGanadora_ */\n      0x00\n        /* \"votacion.sol\":4644:4672  uint conteoPropuestaGanadora */\n      dup1\n        /* \"votacion.sol\":4675:4676  0 */\n      0x00\n        /* \"votacion.sol\":4644:4676  uint conteoPropuestaGanadora = 0 */\n      swap1\n      pop\n        /* \"votacion.sol\":4696:4702  uint p */\n      0x00\n        /* \"votacion.sol\":4691:4971  for (uint p = 0; p < propuestas.length; p++) { \r... */\n    tag_99:\n        /* \"votacion.sol\":4712:4722  propuestas */\n      0x0a\n        /* \"votacion.sol\":4712:4729  propuestas.length */\n      dup1\n      sload\n      swap1\n      pop\n        /* \"votacion.sol\":4708:4709  p */\n      dup2\n        /* \"votacion.sol\":4708:4729  p < propuestas.length */\n      lt\n        /* \"votacion.sol\":4691:4971  for (uint p = 0; p < propuestas.length; p++) { \r... */\n      iszero\n      tag_100\n      jumpi\n        /* \"votacion.sol\":4786:4809  conteoPropuestaGanadora */\n      dup2\n        /* \"votacion.sol\":4764:4774  propuestas */\n      0x0a\n        /* \"votacion.sol\":4775:4776  p */\n      dup3\n        /* \"votacion.sol\":4764:4777  propuestas[p] */\n      dup2\n      sload\n      dup2\n      lt\n      tag_102\n      jumpi\n      tag_103\n      tag_57\n      jump\t// in\n    tag_103:\n    tag_102:\n      swap1\n      0x00\n      mstore\n      keccak256(0x00, 0x20)\n      swap1\n      0x03\n      mul\n      add\n        /* \"votacion.sol\":4764:4783  propuestas[p].votos */\n      0x02\n      add\n      sload\n        /* \"votacion.sol\":4764:4809  propuestas[p].votos > conteoPropuestaGanadora */\n      gt\n        /* \"votacion.sol\":4760:4956  if (propuestas[p].votos > conteoPropuestaGanadora) {\r... */\n      iszero\n      tag_105\n      jumpi\n        /* \"votacion.sol\":4864:4874  propuestas */\n      0x0a\n        /* \"votacion.sol\":4875:4876  p */\n      dup2\n        /* \"votacion.sol\":4864:4877  propuestas[p] */\n      dup2\n      sload\n      dup2\n      lt\n      tag_106\n      jumpi\n      tag_107\n      tag_57\n      jump\t// in\n    tag_107:\n    tag_106:\n      swap1\n      0x00\n      mstore\n      keccak256(0x00, 0x20)\n      swap1\n      0x03\n      mul\n      add\n        /* \"votacion.sol\":4864:4883  propuestas[p].votos */\n      0x02\n      add\n      sload\n        /* \"votacion.sol\":4838:4883  conteoPropuestaGanadora = propuestas[p].votos */\n      swap2\n      pop\n        /* \"votacion.sol\":4931:4932  p */\n      dup1\n        /* \"votacion.sol\":4910:4932  propuestaGanadora_ = p */\n      swap3\n      pop\n        /* \"votacion.sol\":4760:4956  if (propuestas[p].votos > conteoPropuestaGanadora) {\r... */\n    tag_105:\n        /* \"votacion.sol\":4731:4734  p++ */\n      dup1\n      dup1\n      tag_109\n      swap1\n      tag_66\n      jump\t// in\n    tag_109:\n      swap2\n      pop\n      pop\n        /* \"votacion.sol\":4691:4971  for (uint p = 0; p < propuestas.length; p++) { \r... */\n      jump(tag_99)\n    tag_100:\n      pop\n        /* \"votacion.sol\":4629:4982  {\r... */\n      pop\n        /* \"votacion.sol\":4555:4982  function propuestaGanadora() view public returns (uint propuestaGanadora_){\r... */\n      swap1\n      jump\t// out\n        /* \"votacion.sol\":3294:3323  propuesta[] public propuestas */\n    tag_30:\n      0x0a\n      dup2\n      dup2\n      sload\n      dup2\n      lt\n      tag_110\n      jumpi\n      0x00\n      dup1\n      revert\n    tag_110:\n      swap1\n      0x00\n      mstore\n      keccak256(0x00, 0x20)\n      swap1\n      0x03\n      mul\n      add\n      0x00\n      swap2\n      pop\n      swap1\n      pop\n      dup1\n      0x00\n      add\n      sload\n      swap1\n      dup1\n      0x01\n      add\n      sload\n      swap1\n      dup1\n      0x02\n      add\n      sload\n      swap1\n      pop\n      dup4\n      jump\t// out\n        /* \"votacion.sol\":2076:2662  function leerVotante(uint _id) public view returns (uint, string memory, uint, bool, bool){\r... */\n    tag_35:\n        /* \"votacion.sol\":2128:2132  uint */\n      0x00\n        /* \"votacion.sol\":2134:2147  string memory */\n      0x60\n        /* \"votacion.sol\":2149:2153  uint */\n      0x00\n        /* \"votacion.sol\":2155:2159  bool */\n      dup1\n        /* \"votacion.sol\":2161:2165  bool */\n      0x00\n        /* \"votacion.sol\":2239:2249  uint index */\n      dup1\n        /* \"votacion.sol\":2252:2266  findIndex(_id) */\n      tag_113\n        /* \"votacion.sol\":2262:2265  _id */\n      dup8\n        /* \"votacion.sol\":2252:2261  findIndex */\n      tag_114\n        /* \"votacion.sol\":2252:2266  findIndex(_id) */\n      jump\t// in\n    tag_113:\n        /* \"votacion.sol\":2239:2266  uint index = findIndex(_id) */\n      swap1\n      pop\n        /* \"votacion.sol\":2374:2382  votantes */\n      0x03\n        /* \"votacion.sol\":2374:2394  votantes[msg.sender] */\n      0x00\n        /* \"votacion.sol\":2383:2393  msg.sender */\n      caller\n        /* \"votacion.sol\":2374:2394  votantes[msg.sender] */\n      0xffffffffffffffffffffffffffffffffffffffff\n      and\n      0xffffffffffffffffffffffffffffffffffffffff\n      and\n      dup2\n      mstore\n      0x20\n      add\n      swap1\n      dup2\n      mstore\n      0x20\n      add\n      0x00\n      keccak256\n        /* \"votacion.sol\":2395:2400  index */\n      dup2\n        /* \"votacion.sol\":2374:2401  votantes[msg.sender][index] */\n      dup2\n      sload\n      dup2\n      lt\n      tag_115\n      jumpi\n      tag_116\n      tag_57\n      jump\t// in\n    tag_116:\n    tag_115:\n      swap1\n      0x00\n      mstore\n      keccak256(0x00, 0x20)\n      swap1\n      0x04\n      mul\n      add\n        /* \"votacion.sol\":2374:2416  votantes[msg.sender][index].identificacion */\n      0x00\n      add\n      sload\n        /* \"votacion.sol\":2440:2448  votantes */\n      0x03\n        /* \"votacion.sol\":2440:2460  votantes[msg.sender] */\n      0x00\n        /* \"votacion.sol\":2449:2459  msg.sender */\n      caller\n        /* \"votacion.sol\":2440:2460  votantes[msg.sender] */\n      0xffffffffffffffffffffffffffffffffffffffff\n      and\n      0xffffffffffffffffffffffffffffffffffffffff\n      and\n      dup2\n      mstore\n      0x20\n      add\n      swap1\n      dup2\n      mstore\n      0x20\n      add\n      0x00\n      keccak256\n        /* \"votacion.sol\":2461:2466  index */\n      dup3\n        /* \"votacion.sol\":2440:2467  votantes[msg.sender][index] */\n      dup2\n      sload\n      dup2\n      lt\n      tag_118\n      jumpi\n      tag_119\n      tag_57\n      jump\t// in\n    tag_119:\n    tag_118:\n      swap1\n      0x00\n      mstore\n      keccak256(0x00, 0x20)\n      swap1\n      0x04\n      mul\n      add\n        /* \"votacion.sol\":2440:2474  votantes[msg.sender][index].nombre */\n      0x01\n      add\n        /* \"votacion.sol\":2497:2505  votantes */\n      0x03\n        /* \"votacion.sol\":2497:2517  votantes[msg.sender] */\n      0x00\n        /* \"votacion.sol\":2506:2516  msg.sender */\n      caller\n        /* \"votacion.sol\":2497:2517  votantes[msg.sender] */\n      0xffffffffffffffffffffffffffffffffffffffff\n      and\n      0xffffffffffffffffffffffffffffffffffffffff\n      and\n      dup2\n      mstore\n      0x20\n      add\n      swap1\n      dup2\n      mstore\n      0x20\n      add\n      0x00\n      keccak256\n        /* \"votacion.sol\":2518:2523  index */\n      dup4\n        /* \"votacion.sol\":2497:2524  votantes[msg.sender][index] */\n      dup2\n      sload\n      dup2\n      lt\n      tag_121\n      jumpi\n      tag_122\n      tag_57\n      jump\t// in\n    tag_122:\n    tag_121:\n      swap1\n      0x00\n      mstore\n      keccak256(0x00, 0x20)\n      swap1\n      0x04\n      mul\n      add\n        /* \"votacion.sol\":2497:2529  votantes[msg.sender][index].edad */\n      0x02\n      add\n      sload\n        /* \"votacion.sol\":2553:2561  votantes */\n      0x03\n        /* \"votacion.sol\":2553:2573  votantes[msg.sender] */\n      0x00\n        /* \"votacion.sol\":2562:2572  msg.sender */\n      caller\n        /* \"votacion.sol\":2553:2573  votantes[msg.sender] */\n      0xffffffffffffffffffffffffffffffffffffffff\n      and\n      0xffffffffffffffffffffffffffffffffffffffff\n      and\n      dup2\n      mstore\n      0x20\n      add\n      swap1\n      dup2\n      mstore\n      0x20\n      add\n      0x00\n      keccak256\n        /* \"votacion.sol\":2574:2579  index */\n      dup5\n        /* \"votacion.sol\":2553:2580  votantes[msg.sender][index] */\n      dup2\n      sload\n      dup2\n      lt\n      tag_124\n      jumpi\n      tag_125\n      tag_57\n      jump\t// in\n    tag_125:\n    tag_124:\n      swap1\n      0x00\n      mstore\n      keccak256(0x00, 0x20)\n      swap1\n      0x04\n      mul\n      add\n        /* \"votacion.sol\":2553:2587  votantes[msg.sender][index].yaVoto */\n      0x03\n      add\n      0x00\n      swap1\n      sload\n      swap1\n      0x0100\n      exp\n      swap1\n      div\n      0xff\n      and\n        /* \"votacion.sol\":2611:2619  votantes */\n      0x03\n        /* \"votacion.sol\":2611:2631  votantes[msg.sender] */\n      0x00\n        /* \"votacion.sol\":2620:2630  msg.sender */\n      caller\n        /* \"votacion.sol\":2611:2631  votantes[msg.sender] */\n      0xffffffffffffffffffffffffffffffffffffffff\n      and\n      0xffffffffffffffffffffffffffffffffffffffff\n      and\n      dup2\n      mstore\n      0x20\n      add\n      swap1\n      dup2\n      mstore\n      0x20\n      add\n      0x00\n      keccak256\n        /* \"votacion.sol\":2632:2637  index */\n      dup6\n        /* \"votacion.sol\":2611:2638  votantes[msg.sender][index] */\n      dup2\n      sload\n      dup2\n      lt\n      tag_127\n      jumpi\n      tag_128\n      tag_57\n      jump\t// in\n    tag_128:\n    tag_127:\n      swap1\n      0x00\n      mstore\n      keccak256(0x00, 0x20)\n      swap1\n      0x04\n      mul\n      add\n        /* \"votacion.sol\":2611:2649  votantes[msg.sender][index].puedeVotar */\n      0x03\n      add\n      0x01\n      swap1\n      sload\n      swap1\n      0x0100\n      exp\n      swap1\n      div\n      0xff\n      and\n        /* \"votacion.sol\":2366:2650  return (votantes[msg.sender][index].identificacion, \r... */\n      dup4\n      dup1\n      sload\n      tag_130\n      swap1\n      tag_131\n      jump\t// in\n    tag_130:\n      dup1\n      0x1f\n      add\n      0x20\n      dup1\n      swap2\n      div\n      mul\n      0x20\n      add\n      mload(0x40)\n      swap1\n      dup2\n      add\n      0x40\n      mstore\n      dup1\n      swap3\n      swap2\n      swap1\n      dup2\n      dup2\n      mstore\n      0x20\n      add\n      dup3\n      dup1\n      sload\n      tag_132\n      swap1\n      tag_131\n      jump\t// in\n    tag_132:\n      dup1\n      iszero\n      tag_133\n      jumpi\n      dup1\n      0x1f\n      lt\n      tag_134\n      jumpi\n      0x0100\n      dup1\n      dup4\n      sload\n      div\n      mul\n      dup4\n      mstore\n      swap2\n      0x20\n      add\n      swap2\n      jump(tag_133)\n    tag_134:\n      dup3\n      add\n      swap2\n      swap1\n      0x00\n      mstore\n      keccak256(0x00, 0x20)\n      swap1\n    tag_135:\n      dup2\n      sload\n      dup2\n      mstore\n      swap1\n      0x01\n      add\n      swap1\n      0x20\n      add\n      dup1\n      dup4\n      gt\n      tag_135\n      jumpi\n      dup3\n      swap1\n      sub\n      0x1f\n      and\n      dup3\n      add\n      swap2\n    tag_133:\n      pop\n      pop\n      pop\n      pop\n      pop\n      swap4\n      pop\n      swap6\n      pop\n      swap6\n      pop\n      swap6\n      pop\n      swap6\n      pop\n      swap6\n      pop\n      pop\n        /* \"votacion.sol\":2076:2662  function leerVotante(uint _id) public view returns (uint, string memory, uint, bool, bool){\r... */\n      swap2\n      swap4\n      swap6\n      swap1\n      swap3\n      swap5\n      pop\n      jump\t// out\n        /* \"votacion.sol\":1184:1229  mapping(address => votante[]) public votantes */\n    tag_41:\n      mstore(0x20, 0x03)\n      dup2\n      0x00\n      mstore\n      keccak256(0x00, 0x40)\n      dup2\n      dup2\n      sload\n      dup2\n      lt\n      tag_136\n      jumpi\n      0x00\n      dup1\n      revert\n    tag_136:\n      swap1\n      0x00\n      mstore\n      keccak256(0x00, 0x20)\n      swap1\n      0x04\n      mul\n      add\n      0x00\n      swap2\n      pop\n      swap2\n      pop\n      pop\n      dup1\n      0x00\n      add\n      sload\n      swap1\n      dup1\n      0x01\n      add\n      dup1\n      sload\n      tag_138\n      swap1\n      tag_131\n      jump\t// in\n    tag_138:\n      dup1\n      0x1f\n      add\n      0x20\n      dup1\n      swap2\n      div\n      mul\n      0x20\n      add\n      mload(0x40)\n      swap1\n      dup2\n      add\n      0x40\n      mstore\n      dup1\n      swap3\n      swap2\n      swap1\n      dup2\n      dup2\n      mstore\n      0x20\n      add\n      dup3\n      dup1\n      sload\n      tag_139\n      swap1\n      tag_131\n      jump\t// in\n    tag_139:\n      dup1\n      iszero\n      tag_140\n      jumpi\n      dup1\n      0x1f\n      lt\n      tag_141\n      jumpi\n      0x0100\n      dup1\n      dup4\n      sload\n      div\n      mul\n      dup4\n      mstore\n      swap2\n      0x20\n      add\n      swap2\n      jump(tag_140)\n    tag_141:\n      dup3\n      add\n      swap2\n      swap1\n      0x00\n      mstore\n      keccak256(0x00, 0x20)\n      swap1\n    tag_142:\n      dup2\n      sload\n      dup2\n      mstore\n      swap1\n      0x01\n      add\n      swap1\n      0x20\n      add\n      dup1\n      dup4\n      gt\n      tag_142\n      jumpi\n      dup3\n      swap1\n      sub\n      0x1f\n      and\n      dup3\n      add\n      swap2\n    tag_140:\n      pop\n      pop\n      pop\n      pop\n      pop\n      swap1\n      dup1\n      0x02\n      add\n      sload\n      swap1\n      dup1\n      0x03\n      add\n      0x00\n      swap1\n      sload\n      swap1\n      0x0100\n      exp\n      swap1\n      div\n      0xff\n      and\n      swap1\n      dup1\n      0x03\n      add\n      0x01\n      swap1\n      sload\n      swap1\n      0x0100\n      exp\n      swap1\n      div\n      0xff\n      and\n      swap1\n      pop\n      dup6\n      jump\t// out\n        /* \"votacion.sol\":5164:5318  function nombrePropuestaGanadora() public view returns (bytes32 winnerName_) {\r... */\n    tag_44:\n        /* \"votacion.sol\":5220:5239  bytes32 winnerName_ */\n      0x00\n        /* \"votacion.sol\":5270:5280  propuestas */\n      0x0a\n        /* \"votacion.sol\":5281:5300  propuestaGanadora() */\n      tag_144\n        /* \"votacion.sol\":5281:5298  propuestaGanadora */\n      tag_25\n        /* \"votacion.sol\":5281:5300  propuestaGanadora() */\n      jump\t// in\n    tag_144:\n        /* \"votacion.sol\":5270:5301  propuestas[propuestaGanadora()] */\n      dup2\n      sload\n      dup2\n      lt\n      tag_145\n      jumpi\n      tag_146\n      tag_57\n      jump\t// in\n    tag_146:\n    tag_145:\n      swap1\n      0x00\n      mstore\n      keccak256(0x00, 0x20)\n      swap1\n      0x03\n      mul\n      add\n        /* \"votacion.sol\":5270:5306  propuestas[propuestaGanadora()].name */\n      0x01\n      add\n      sload\n        /* \"votacion.sol\":5256:5306  winnerName_ = propuestas[propuestaGanadora()].name */\n      swap1\n      pop\n        /* \"votacion.sol\":5164:5318  function nombrePropuestaGanadora() public view returns (bytes32 winnerName_) {\r... */\n      swap1\n      jump\t// out\n        /* \"votacion.sol\":1569:1934  function findIndex(uint _id) internal view returns(uint){\r... */\n    tag_114:\n        /* \"votacion.sol\":1620:1624  uint */\n      0x00\n        /* \"votacion.sol\":1644:1650  uint i */\n      dup1\n        /* \"votacion.sol\":1653:1654  0 */\n      0x00\n        /* \"votacion.sol\":1644:1654  uint i = 0 */\n      swap1\n      pop\n        /* \"votacion.sol\":1640:1827  for(uint i = 0; i < votantes[msg.sender].length; i++){\r... */\n    tag_149:\n        /* \"votacion.sol\":1660:1668  votantes */\n      0x03\n        /* \"votacion.sol\":1660:1680  votantes[msg.sender] */\n      0x00\n        /* \"votacion.sol\":1669:1679  msg.sender */\n      caller\n        /* \"votacion.sol\":1660:1680  votantes[msg.sender] */\n      0xffffffffffffffffffffffffffffffffffffffff\n      and\n      0xffffffffffffffffffffffffffffffffffffffff\n      and\n      dup2\n      mstore\n      0x20\n      add\n      swap1\n      dup2\n      mstore\n      0x20\n      add\n      0x00\n      keccak256\n        /* \"votacion.sol\":1660:1687  votantes[msg.sender].length */\n      dup1\n      sload\n      swap1\n      pop\n        /* \"votacion.sol\":1656:1657  i */\n      dup2\n        /* \"votacion.sol\":1656:1687  i < votantes[msg.sender].length */\n      lt\n        /* \"votacion.sol\":1640:1827  for(uint i = 0; i < votantes[msg.sender].length; i++){\r... */\n      iszero\n      tag_150\n      jumpi\n        /* \"votacion.sol\":1757:1760  _id */\n      dup3\n        /* \"votacion.sol\":1715:1723  votantes */\n      0x03\n        /* \"votacion.sol\":1715:1735  votantes[msg.sender] */\n      0x00\n        /* \"votacion.sol\":1724:1734  msg.sender */\n      caller\n        /* \"votacion.sol\":1715:1735  votantes[msg.sender] */\n      0xffffffffffffffffffffffffffffffffffffffff\n      and\n      0xffffffffffffffffffffffffffffffffffffffff\n      and\n      dup2\n      mstore\n      0x20\n      add\n      swap1\n      dup2\n      mstore\n      0x20\n      add\n      0x00\n      keccak256\n        /* \"votacion.sol\":1736:1737  i */\n      dup3\n        /* \"votacion.sol\":1715:1738  votantes[msg.sender][i] */\n      dup2\n      sload\n      dup2\n      lt\n      tag_152\n      jumpi\n      tag_153\n      tag_57\n      jump\t// in\n    tag_153:\n    tag_152:\n      swap1\n      0x00\n      mstore\n      keccak256(0x00, 0x20)\n      swap1\n      0x04\n      mul\n      add\n        /* \"votacion.sol\":1715:1753  votantes[msg.sender][i].identificacion */\n      0x00\n      add\n      sload\n        /* \"votacion.sol\":1715:1760  votantes[msg.sender][i].identificacion == _id */\n      eq\n        /* \"votacion.sol\":1712:1812  if(votantes[msg.sender][i].identificacion == _id){\r... */\n      iszero\n      tag_155\n      jumpi\n        /* \"votacion.sol\":1791:1792  i */\n      dup1\n        /* \"votacion.sol\":1784:1792  return i */\n      swap2\n      pop\n      pop\n      jump(tag_148)\n        /* \"votacion.sol\":1712:1812  if(votantes[msg.sender][i].identificacion == _id){\r... */\n    tag_155:\n        /* \"votacion.sol\":1689:1692  i++ */\n      dup1\n      dup1\n      tag_156\n      swap1\n      tag_66\n      jump\t// in\n    tag_156:\n      swap2\n      pop\n      pop\n        /* \"votacion.sol\":1640:1827  for(uint i = 0; i < votantes[msg.sender].length; i++){\r... */\n      jump(tag_149)\n    tag_150:\n      pop\n        /* \"votacion.sol\":1890:1922  revert(\"Votante no encontrado!\") */\n      mload(0x40)\n      0x08c379a000000000000000000000000000000000000000000000000000000000\n      dup2\n      mstore\n      0x04\n      add\n      tag_157\n      swap1\n      tag_158\n      jump\t// in\n    tag_157:\n      mload(0x40)\n      dup1\n      swap2\n      sub\n      swap1\n      revert\n        /* \"votacion.sol\":1569:1934  function findIndex(uint _id) internal view returns(uint){\r... */\n    tag_148:\n      swap2\n      swap1\n      pop\n      jump\t// out\n    tag_70:\n      dup3\n      dup1\n      sload\n      tag_159\n      swap1\n      tag_131\n      jump\t// in\n    tag_159:\n      swap1\n      0x00\n      mstore\n      keccak256(0x00, 0x20)\n      swap1\n      0x1f\n      add\n      0x20\n      swap1\n      div\n      dup2\n      add\n      swap3\n      dup3\n      tag_161\n      jumpi\n      0x00\n      dup6\n      sstore\n      jump(tag_160)\n    tag_161:\n      dup3\n      0x1f\n      lt\n      tag_162\n      jumpi\n      dup1\n      mload\n      not(0xff)\n      and\n      dup4\n      dup1\n      add\n      or\n      dup6\n      sstore\n      jump(tag_160)\n    tag_162:\n      dup3\n      dup1\n      add\n      0x01\n      add\n      dup6\n      sstore\n      dup3\n      iszero\n      tag_160\n      jumpi\n      swap2\n      dup3\n      add\n    tag_163:\n      dup3\n      dup2\n      gt\n      iszero\n      tag_164\n      jumpi\n      dup3\n      mload\n      dup3\n      sstore\n      swap2\n      0x20\n      add\n      swap2\n      swap1\n      0x01\n      add\n      swap1\n      jump(tag_163)\n    tag_164:\n    tag_160:\n      pop\n      swap1\n      pop\n      tag_165\n      swap2\n      swap1\n      tag_166\n      jump\t// in\n    tag_165:\n      pop\n      swap1\n      jump\t// out\n    tag_166:\n    tag_167:\n      dup1\n      dup3\n      gt\n      iszero\n      tag_168\n      jumpi\n      0x00\n      dup2\n      0x00\n      swap1\n      sstore\n      pop\n      0x01\n      add\n      jump(tag_167)\n    tag_168:\n      pop\n      swap1\n      jump\t// out\n        /* \"#utility.yul\":7:419   */\n    tag_170:\n        /* \"#utility.yul\":85:90   */\n      0x00\n        /* \"#utility.yul\":110:176   */\n      tag_172\n        /* \"#utility.yul\":126:175   */\n      tag_173\n        /* \"#utility.yul\":168:174   */\n      dup5\n        /* \"#utility.yul\":126:175   */\n      tag_174\n      jump\t// in\n    tag_173:\n        /* \"#utility.yul\":110:176   */\n      tag_175\n      jump\t// in\n    tag_172:\n        /* \"#utility.yul\":101:176   */\n      swap1\n      pop\n        /* \"#utility.yul\":199:205   */\n      dup3\n        /* \"#utility.yul\":192:197   */\n      dup2\n        /* \"#utility.yul\":185:206   */\n      mstore\n        /* \"#utility.yul\":237:241   */\n      0x20\n        /* \"#utility.yul\":230:235   */\n      dup2\n        /* \"#utility.yul\":226:242   */\n      add\n        /* \"#utility.yul\":275:278   */\n      dup5\n        /* \"#utility.yul\":266:272   */\n      dup5\n        /* \"#utility.yul\":261:264   */\n      dup5\n        /* \"#utility.yul\":257:273   */\n      add\n        /* \"#utility.yul\":254:279   */\n      gt\n        /* \"#utility.yul\":251:363   */\n      iszero\n      tag_176\n      jumpi\n        /* \"#utility.yul\":282:361   */\n      tag_177\n      tag_178\n      jump\t// in\n    tag_177:\n        /* \"#utility.yul\":251:363   */\n    tag_176:\n        /* \"#utility.yul\":372:413   */\n      tag_179\n        /* \"#utility.yul\":406:412   */\n      dup5\n        /* \"#utility.yul\":401:404   */\n      dup3\n        /* \"#utility.yul\":396:399   */\n      dup6\n        /* \"#utility.yul\":372:413   */\n      tag_180\n      jump\t// in\n    tag_179:\n        /* \"#utility.yul\":91:419   */\n      pop\n        /* \"#utility.yul\":7:419   */\n      swap4\n      swap3\n      pop\n      pop\n      pop\n      jump\t// out\n        /* \"#utility.yul\":425:564   */\n    tag_181:\n        /* \"#utility.yul\":471:476   */\n      0x00\n        /* \"#utility.yul\":509:515   */\n      dup2\n        /* \"#utility.yul\":496:516   */\n      calldataload\n        /* \"#utility.yul\":487:516   */\n      swap1\n      pop\n        /* \"#utility.yul\":525:558   */\n      tag_183\n        /* \"#utility.yul\":552:557   */\n      dup2\n        /* \"#utility.yul\":525:558   */\n      tag_184\n      jump\t// in\n    tag_183:\n        /* \"#utility.yul\":425:564   */\n      swap3\n      swap2\n      pop\n      pop\n      jump\t// out\n        /* \"#utility.yul\":584:924   */\n    tag_185:\n        /* \"#utility.yul\":640:645   */\n      0x00\n        /* \"#utility.yul\":689:692   */\n      dup3\n        /* \"#utility.yul\":682:686   */\n      0x1f\n        /* \"#utility.yul\":674:680   */\n      dup4\n        /* \"#utility.yul\":670:687   */\n      add\n        /* \"#utility.yul\":666:693   */\n      slt\n        /* \"#utility.yul\":656:778   */\n      tag_187\n      jumpi\n        /* \"#utility.yul\":697:776   */\n      tag_188\n      tag_189\n      jump\t// in\n    tag_188:\n        /* \"#utility.yul\":656:778   */\n    tag_187:\n        /* \"#utility.yul\":814:820   */\n      dup2\n        /* \"#utility.yul\":801:821   */\n      calldataload\n        /* \"#utility.yul\":839:918   */\n      tag_190\n        /* \"#utility.yul\":914:917   */\n      dup5\n        /* \"#utility.yul\":906:912   */\n      dup3\n        /* \"#utility.yul\":899:903   */\n      0x20\n        /* \"#utility.yul\":891:897   */\n      dup7\n        /* \"#utility.yul\":887:904   */\n      add\n        /* \"#utility.yul\":839:918   */\n      tag_170\n      jump\t// in\n    tag_190:\n        /* \"#utility.yul\":830:918   */\n      swap2\n      pop\n        /* \"#utility.yul\":646:924   */\n      pop\n        /* \"#utility.yul\":584:924   */\n      swap3\n      swap2\n      pop\n      pop\n      jump\t// out\n        /* \"#utility.yul\":930:1069   */\n    tag_191:\n        /* \"#utility.yul\":976:981   */\n      0x00\n        /* \"#utility.yul\":1014:1020   */\n      dup2\n        /* \"#utility.yul\":1001:1021   */\n      calldataload\n        /* \"#utility.yul\":992:1021   */\n      swap1\n      pop\n        /* \"#utility.yul\":1030:1063   */\n      tag_193\n        /* \"#utility.yul\":1057:1062   */\n      dup2\n        /* \"#utility.yul\":1030:1063   */\n      tag_194\n      jump\t// in\n    tag_193:\n        /* \"#utility.yul\":930:1069   */\n      swap3\n      swap2\n      pop\n      pop\n      jump\t// out\n        /* \"#utility.yul\":1075:1404   */\n    tag_14:\n        /* \"#utility.yul\":1134:1140   */\n      0x00\n        /* \"#utility.yul\":1183:1185   */\n      0x20\n        /* \"#utility.yul\":1171:1180   */\n      dup3\n        /* \"#utility.yul\":1162:1169   */\n      dup5\n        /* \"#utility.yul\":1158:1181   */\n      sub\n        /* \"#utility.yul\":1154:1186   */\n      slt\n        /* \"#utility.yul\":1151:1270   */\n      iszero\n      tag_196\n      jumpi\n        /* \"#utility.yul\":1189:1268   */\n      tag_197\n      tag_198\n      jump\t// in\n    tag_197:\n        /* \"#utility.yul\":1151:1270   */\n    tag_196:\n        /* \"#utility.yul\":1309:1310   */\n      0x00\n        /* \"#utility.yul\":1334:1387   */\n      tag_199\n        /* \"#utility.yul\":1379:1386   */\n      dup5\n        /* \"#utility.yul\":1370:1376   */\n      dup3\n        /* \"#utility.yul\":1359:1368   */\n      dup6\n        /* \"#utility.yul\":1355:1377   */\n      add\n        /* \"#utility.yul\":1334:1387   */\n      tag_181\n      jump\t// in\n    tag_199:\n        /* \"#utility.yul\":1324:1387   */\n      swap2\n      pop\n        /* \"#utility.yul\":1280:1397   */\n      pop\n        /* \"#utility.yul\":1075:1404   */\n      swap3\n      swap2\n      pop\n      pop\n      jump\t// out\n        /* \"#utility.yul\":1410:1884   */\n    tag_40:\n        /* \"#utility.yul\":1478:1484   */\n      0x00\n        /* \"#utility.yul\":1486:1492   */\n      dup1\n        /* \"#utility.yul\":1535:1537   */\n      0x40\n        /* \"#utility.yul\":1523:1532   */\n      dup4\n        /* \"#utility.yul\":1514:1521   */\n      dup6\n        /* \"#utility.yul\":1510:1533   */\n      sub\n        /* \"#utility.yul\":1506:1538   */\n      slt\n        /* \"#utility.yul\":1503:1622   */\n      iszero\n      tag_201\n      jumpi\n        /* \"#utility.yul\":1541:1620   */\n      tag_202\n      tag_198\n      jump\t// in\n    tag_202:\n        /* \"#utility.yul\":1503:1622   */\n    tag_201:\n        /* \"#utility.yul\":1661:1662   */\n      0x00\n        /* \"#utility.yul\":1686:1739   */\n      tag_203\n        /* \"#utility.yul\":1731:1738   */\n      dup6\n        /* \"#utility.yul\":1722:1728   */\n      dup3\n        /* \"#utility.yul\":1711:1720   */\n      dup7\n        /* \"#utility.yul\":1707:1729   */\n      add\n        /* \"#utility.yul\":1686:1739   */\n      tag_181\n      jump\t// in\n    tag_203:\n        /* \"#utility.yul\":1676:1739   */\n      swap3\n      pop\n        /* \"#utility.yul\":1632:1749   */\n      pop\n        /* \"#utility.yul\":1788:1790   */\n      0x20\n        /* \"#utility.yul\":1814:1867   */\n      tag_204\n        /* \"#utility.yul\":1859:1866   */\n      dup6\n        /* \"#utility.yul\":1850:1856   */\n      dup3\n        /* \"#utility.yul\":1839:1848   */\n      dup7\n        /* \"#utility.yul\":1835:1857   */\n      add\n        /* \"#utility.yul\":1814:1867   */\n      tag_191\n      jump\t// in\n    tag_204:\n        /* \"#utility.yul\":1804:1867   */\n      swap2\n      pop\n        /* \"#utility.yul\":1759:1877   */\n      pop\n        /* \"#utility.yul\":1410:1884   */\n      swap3\n      pop\n      swap3\n      swap1\n      pop\n      jump\t// out\n        /* \"#utility.yul\":1890:2544   */\n    tag_18:\n        /* \"#utility.yul\":1968:1974   */\n      0x00\n        /* \"#utility.yul\":1976:1982   */\n      dup1\n        /* \"#utility.yul\":2025:2027   */\n      0x40\n        /* \"#utility.yul\":2013:2022   */\n      dup4\n        /* \"#utility.yul\":2004:2011   */\n      dup6\n        /* \"#utility.yul\":2000:2023   */\n      sub\n        /* \"#utility.yul\":1996:2028   */\n      slt\n        /* \"#utility.yul\":1993:2112   */\n      iszero\n      tag_206\n      jumpi\n        /* \"#utility.yul\":2031:2110   */\n      tag_207\n      tag_198\n      jump\t// in\n    tag_207:\n        /* \"#utility.yul\":1993:2112   */\n    tag_206:\n        /* \"#utility.yul\":2179:2180   */\n      0x00\n        /* \"#utility.yul\":2168:2177   */\n      dup4\n        /* \"#utility.yul\":2164:2181   */\n      add\n        /* \"#utility.yul\":2151:2182   */\n      calldataload\n        /* \"#utility.yul\":2209:2227   */\n      0xffffffffffffffff\n        /* \"#utility.yul\":2201:2207   */\n      dup2\n        /* \"#utility.yul\":2198:2228   */\n      gt\n        /* \"#utility.yul\":2195:2312   */\n      iszero\n      tag_208\n      jumpi\n        /* \"#utility.yul\":2231:2310   */\n      tag_209\n      tag_210\n      jump\t// in\n    tag_209:\n        /* \"#utility.yul\":2195:2312   */\n    tag_208:\n        /* \"#utility.yul\":2336:2399   */\n      tag_211\n        /* \"#utility.yul\":2391:2398   */\n      dup6\n        /* \"#utility.yul\":2382:2388   */\n      dup3\n        /* \"#utility.yul\":2371:2380   */\n      dup7\n        /* \"#utility.yul\":2367:2389   */\n      add\n        /* \"#utility.yul\":2336:2399   */\n      tag_185\n      jump\t// in\n    tag_211:\n        /* \"#utility.yul\":2326:2399   */\n      swap3\n      pop\n        /* \"#utility.yul\":2122:2409   */\n      pop\n        /* \"#utility.yul\":2448:2450   */\n      0x20\n        /* \"#utility.yul\":2474:2527   */\n      tag_212\n        /* \"#utility.yul\":2519:2526   */\n      dup6\n        /* \"#utility.yul\":2510:2516   */\n      dup3\n        /* \"#utility.yul\":2499:2508   */\n      dup7\n        /* \"#utility.yul\":2495:2517   */\n      add\n        /* \"#utility.yul\":2474:2527   */\n      tag_191\n      jump\t// in\n    tag_212:\n        /* \"#utility.yul\":2464:2527   */\n      swap2\n      pop\n        /* \"#utility.yul\":2419:2537   */\n      pop\n        /* \"#utility.yul\":1890:2544   */\n      swap3\n      pop\n      swap3\n      swap1\n      pop\n      jump\t// out\n        /* \"#utility.yul\":2550:2879   */\n    tag_22:\n        /* \"#utility.yul\":2609:2615   */\n      0x00\n        /* \"#utility.yul\":2658:2660   */\n      0x20\n        /* \"#utility.yul\":2646:2655   */\n      dup3\n        /* \"#utility.yul\":2637:2644   */\n      dup5\n        /* \"#utility.yul\":2633:2656   */\n      sub\n        /* \"#utility.yul\":2629:2661   */\n      slt\n        /* \"#utility.yul\":2626:2745   */\n      iszero\n      tag_214\n      jumpi\n        /* \"#utility.yul\":2664:2743   */\n      tag_215\n      tag_198\n      jump\t// in\n    tag_215:\n        /* \"#utility.yul\":2626:2745   */\n    tag_214:\n        /* \"#utility.yul\":2784:2785   */\n      0x00\n        /* \"#utility.yul\":2809:2862   */\n      tag_216\n        /* \"#utility.yul\":2854:2861   */\n      dup5\n        /* \"#utility.yul\":2845:2851   */\n      dup3\n        /* \"#utility.yul\":2834:2843   */\n      dup6\n        /* \"#utility.yul\":2830:2852   */\n      add\n        /* \"#utility.yul\":2809:2862   */\n      tag_191\n      jump\t// in\n    tag_216:\n        /* \"#utility.yul\":2799:2862   */\n      swap2\n      pop\n        /* \"#utility.yul\":2755:2872   */\n      pop\n        /* \"#utility.yul\":2550:2879   */\n      swap3\n      swap2\n      pop\n      pop\n      jump\t// out\n        /* \"#utility.yul\":2885:2994   */\n    tag_217:\n        /* \"#utility.yul\":2966:2987   */\n      tag_219\n        /* \"#utility.yul\":2981:2986   */\n      dup2\n        /* \"#utility.yul\":2966:2987   */\n      tag_220\n      jump\t// in\n    tag_219:\n        /* \"#utility.yul\":2961:2964   */\n      dup3\n        /* \"#utility.yul\":2954:2988   */\n      mstore\n        /* \"#utility.yul\":2885:2994   */\n      pop\n      pop\n      jump\t// out\n        /* \"#utility.yul\":3000:3118   */\n    tag_221:\n        /* \"#utility.yul\":3087:3111   */\n      tag_223\n        /* \"#utility.yul\":3105:3110   */\n      dup2\n        /* \"#utility.yul\":3087:3111   */\n      tag_224\n      jump\t// in\n    tag_223:\n        /* \"#utility.yul\":3082:3085   */\n      dup3\n        /* \"#utility.yul\":3075:3112   */\n      mstore\n        /* \"#utility.yul\":3000:3118   */\n      pop\n      pop\n      jump\t// out\n        /* \"#utility.yul\":3124:3488   */\n    tag_225:\n        /* \"#utility.yul\":3212:3215   */\n      0x00\n        /* \"#utility.yul\":3240:3279   */\n      tag_227\n        /* \"#utility.yul\":3273:3278   */\n      dup3\n        /* \"#utility.yul\":3240:3279   */\n      tag_228\n      jump\t// in\n    tag_227:\n        /* \"#utility.yul\":3295:3366   */\n      tag_229\n        /* \"#utility.yul\":3359:3365   */\n      dup2\n        /* \"#utility.yul\":3354:3357   */\n      dup6\n        /* \"#utility.yul\":3295:3366   */\n      tag_230\n      jump\t// in\n    tag_229:\n        /* \"#utility.yul\":3288:3366   */\n      swap4\n      pop\n        /* \"#utility.yul\":3375:3427   */\n      tag_231\n        /* \"#utility.yul\":3420:3426   */\n      dup2\n        /* \"#utility.yul\":3415:3418   */\n      dup6\n        /* \"#utility.yul\":3408:3412   */\n      0x20\n        /* \"#utility.yul\":3401:3406   */\n      dup7\n        /* \"#utility.yul\":3397:3413   */\n      add\n        /* \"#utility.yul\":3375:3427   */\n      tag_232\n      jump\t// in\n    tag_231:\n        /* \"#utility.yul\":3452:3481   */\n      tag_233\n        /* \"#utility.yul\":3474:3480   */\n      dup2\n        /* \"#utility.yul\":3452:3481   */\n      tag_234\n      jump\t// in\n    tag_233:\n        /* \"#utility.yul\":3447:3450   */\n      dup5\n        /* \"#utility.yul\":3443:3482   */\n      add\n        /* \"#utility.yul\":3436:3482   */\n      swap2\n      pop\n        /* \"#utility.yul\":3216:3488   */\n      pop\n        /* \"#utility.yul\":3124:3488   */\n      swap3\n      swap2\n      pop\n      pop\n      jump\t// out\n        /* \"#utility.yul\":3494:3860   */\n    tag_235:\n        /* \"#utility.yul\":3636:3639   */\n      0x00\n        /* \"#utility.yul\":3657:3724   */\n      tag_237\n        /* \"#utility.yul\":3721:3723   */\n      0x19\n        /* \"#utility.yul\":3716:3719   */\n      dup4\n        /* \"#utility.yul\":3657:3724   */\n      tag_230\n      jump\t// in\n    tag_237:\n        /* \"#utility.yul\":3650:3724   */\n      swap2\n      pop\n        /* \"#utility.yul\":3733:3826   */\n      tag_238\n        /* \"#utility.yul\":3822:3825   */\n      dup3\n        /* \"#utility.yul\":3733:3826   */\n      tag_239\n      jump\t// in\n    tag_238:\n        /* \"#utility.yul\":3851:3853   */\n      0x20\n        /* \"#utility.yul\":3846:3849   */\n      dup3\n        /* \"#utility.yul\":3842:3854   */\n      add\n        /* \"#utility.yul\":3835:3854   */\n      swap1\n      pop\n        /* \"#utility.yul\":3494:3860   */\n      swap2\n      swap1\n      pop\n      jump\t// out\n        /* \"#utility.yul\":3866:4232   */\n    tag_240:\n        /* \"#utility.yul\":4008:4011   */\n      0x00\n        /* \"#utility.yul\":4029:4096   */\n      tag_242\n        /* \"#utility.yul\":4093:4095   */\n      0x16\n        /* \"#utility.yul\":4088:4091   */\n      dup4\n        /* \"#utility.yul\":4029:4096   */\n      tag_230\n      jump\t// in\n    tag_242:\n        /* \"#utility.yul\":4022:4096   */\n      swap2\n      pop\n        /* \"#utility.yul\":4105:4198   */\n      tag_243\n        /* \"#utility.yul\":4194:4197   */\n      dup3\n        /* \"#utility.yul\":4105:4198   */\n      tag_244\n      jump\t// in\n    tag_243:\n        /* \"#utility.yul\":4223:4225   */\n      0x20\n        /* \"#utility.yul\":4218:4221   */\n      dup3\n        /* \"#utility.yul\":4214:4226   */\n      add\n        /* \"#utility.yul\":4207:4226   */\n      swap1\n      pop\n        /* \"#utility.yul\":3866:4232   */\n      swap2\n      swap1\n      pop\n      jump\t// out\n        /* \"#utility.yul\":4238:4604   */\n    tag_245:\n        /* \"#utility.yul\":4380:4383   */\n      0x00\n        /* \"#utility.yul\":4401:4468   */\n      tag_247\n        /* \"#utility.yul\":4465:4467   */\n      0x1b\n        /* \"#utility.yul\":4460:4463   */\n      dup4\n        /* \"#utility.yul\":4401:4468   */\n      tag_230\n      jump\t// in\n    tag_247:\n        /* \"#utility.yul\":4394:4468   */\n      swap2\n      pop\n        /* \"#utility.yul\":4477:4570   */\n      tag_248\n        /* \"#utility.yul\":4566:4569   */\n      dup3\n        /* \"#utility.yul\":4477:4570   */\n      tag_249\n      jump\t// in\n    tag_248:\n        /* \"#utility.yul\":4595:4597   */\n      0x20\n        /* \"#utility.yul\":4590:4593   */\n      dup3\n        /* \"#utility.yul\":4586:4598   */\n      add\n        /* \"#utility.yul\":4579:4598   */\n      swap1\n      pop\n        /* \"#utility.yul\":4238:4604   */\n      swap2\n      swap1\n      pop\n      jump\t// out\n        /* \"#utility.yul\":4610:4976   */\n    tag_250:\n        /* \"#utility.yul\":4752:4755   */\n      0x00\n        /* \"#utility.yul\":4773:4840   */\n      tag_252\n        /* \"#utility.yul\":4837:4839   */\n      0x26\n        /* \"#utility.yul\":4832:4835   */\n      dup4\n        /* \"#utility.yul\":4773:4840   */\n      tag_230\n      jump\t// in\n    tag_252:\n        /* \"#utility.yul\":4766:4840   */\n      swap2\n      pop\n        /* \"#utility.yul\":4849:4942   */\n      tag_253\n        /* \"#utility.yul\":4938:4941   */\n      dup3\n        /* \"#utility.yul\":4849:4942   */\n      tag_254\n      jump\t// in\n    tag_253:\n        /* \"#utility.yul\":4967:4969   */\n      0x40\n        /* \"#utility.yul\":4962:4965   */\n      dup3\n        /* \"#utility.yul\":4958:4970   */\n      add\n        /* \"#utility.yul\":4951:4970   */\n      swap1\n      pop\n        /* \"#utility.yul\":4610:4976   */\n      swap2\n      swap1\n      pop\n      jump\t// out\n        /* \"#utility.yul\":4982:5348   */\n    tag_255:\n        /* \"#utility.yul\":5124:5127   */\n      0x00\n        /* \"#utility.yul\":5145:5212   */\n      tag_257\n        /* \"#utility.yul\":5209:5211   */\n      0x19\n        /* \"#utility.yul\":5204:5207   */\n      dup4\n        /* \"#utility.yul\":5145:5212   */\n      tag_230\n      jump\t// in\n    tag_257:\n        /* \"#utility.yul\":5138:5212   */\n      swap2\n      pop\n        /* \"#utility.yul\":5221:5314   */\n      tag_258\n        /* \"#utility.yul\":5310:5313   */\n      dup3\n        /* \"#utility.yul\":5221:5314   */\n      tag_259\n      jump\t// in\n    tag_258:\n        /* \"#utility.yul\":5339:5341   */\n      0x20\n        /* \"#utility.yul\":5334:5337   */\n      dup3\n        /* \"#utility.yul\":5330:5342   */\n      add\n        /* \"#utility.yul\":5323:5342   */\n      swap1\n      pop\n        /* \"#utility.yul\":4982:5348   */\n      swap2\n      swap1\n      pop\n      jump\t// out\n        /* \"#utility.yul\":5354:5472   */\n    tag_260:\n        /* \"#utility.yul\":5441:5465   */\n      tag_262\n        /* \"#utility.yul\":5459:5464   */\n      dup2\n        /* \"#utility.yul\":5441:5465   */\n      tag_263\n      jump\t// in\n    tag_262:\n        /* \"#utility.yul\":5436:5439   */\n      dup3\n        /* \"#utility.yul\":5429:5466   */\n      mstore\n        /* \"#utility.yul\":5354:5472   */\n      pop\n      pop\n      jump\t// out\n        /* \"#utility.yul\":5478:5700   */\n    tag_46:\n        /* \"#utility.yul\":5571:5575   */\n      0x00\n        /* \"#utility.yul\":5609:5611   */\n      0x20\n        /* \"#utility.yul\":5598:5607   */\n      dup3\n        /* \"#utility.yul\":5594:5612   */\n      add\n        /* \"#utility.yul\":5586:5612   */\n      swap1\n      pop\n        /* \"#utility.yul\":5622:5693   */\n      tag_265\n        /* \"#utility.yul\":5690:5691   */\n      0x00\n        /* \"#utility.yul\":5679:5688   */\n      dup4\n        /* \"#utility.yul\":5675:5692   */\n      add\n        /* \"#utility.yul\":5666:5672   */\n      dup5\n        /* \"#utility.yul\":5622:5693   */\n      tag_221\n      jump\t// in\n    tag_265:\n        /* \"#utility.yul\":5478:5700   */\n      swap3\n      swap2\n      pop\n      pop\n      jump\t// out\n        /* \"#utility.yul\":5706:6125   */\n    tag_61:\n        /* \"#utility.yul\":5872:5876   */\n      0x00\n        /* \"#utility.yul\":5910:5912   */\n      0x20\n        /* \"#utility.yul\":5899:5908   */\n      dup3\n        /* \"#utility.yul\":5895:5913   */\n      add\n        /* \"#utility.yul\":5887:5913   */\n      swap1\n      pop\n        /* \"#utility.yul\":5959:5968   */\n      dup2\n        /* \"#utility.yul\":5953:5957   */\n      dup2\n        /* \"#utility.yul\":5949:5969   */\n      sub\n        /* \"#utility.yul\":5945:5946   */\n      0x00\n        /* \"#utility.yul\":5934:5943   */\n      dup4\n        /* \"#utility.yul\":5930:5947   */\n      add\n        /* \"#utility.yul\":5923:5970   */\n      mstore\n        /* \"#utility.yul\":5987:6118   */\n      tag_267\n        /* \"#utility.yul\":6113:6117   */\n      dup2\n        /* \"#utility.yul\":5987:6118   */\n      tag_235\n      jump\t// in\n    tag_267:\n        /* \"#utility.yul\":5979:6118   */\n      swap1\n      pop\n        /* \"#utility.yul\":5706:6125   */\n      swap2\n      swap1\n      pop\n      jump\t// out\n        /* \"#utility.yul\":6131:6550   */\n    tag_158:\n        /* \"#utility.yul\":6297:6301   */\n      0x00\n        /* \"#utility.yul\":6335:6337   */\n      0x20\n        /* \"#utility.yul\":6324:6333   */\n      dup3\n        /* \"#utility.yul\":6320:6338   */\n      add\n        /* \"#utility.yul\":6312:6338   */\n      swap1\n      pop\n        /* \"#utility.yul\":6384:6393   */\n      dup2\n        /* \"#utility.yul\":6378:6382   */\n      dup2\n        /* \"#utility.yul\":6374:6394   */\n      sub\n        /* \"#utility.yul\":6370:6371   */\n      0x00\n        /* \"#utility.yul\":6359:6368   */\n      dup4\n        /* \"#utility.yul\":6355:6372   */\n      add\n        /* \"#utility.yul\":6348:6395   */\n      mstore\n        /* \"#utility.yul\":6412:6543   */\n      tag_269\n        /* \"#utility.yul\":6538:6542   */\n      dup2\n        /* \"#utility.yul\":6412:6543   */\n      tag_240\n      jump\t// in\n    tag_269:\n        /* \"#utility.yul\":6404:6543   */\n      swap1\n      pop\n        /* \"#utility.yul\":6131:6550   */\n      swap2\n      swap1\n      pop\n      jump\t// out\n        /* \"#utility.yul\":6556:6975   */\n    tag_50:\n        /* \"#utility.yul\":6722:6726   */\n      0x00\n        /* \"#utility.yul\":6760:6762   */\n      0x20\n        /* \"#utility.yul\":6749:6758   */\n      dup3\n        /* \"#utility.yul\":6745:6763   */\n      add\n        /* \"#utility.yul\":6737:6763   */\n      swap1\n      pop\n        /* \"#utility.yul\":6809:6818   */\n      dup2\n        /* \"#utility.yul\":6803:6807   */\n      dup2\n        /* \"#utility.yul\":6799:6819   */\n      sub\n        /* \"#utility.yul\":6795:6796   */\n      0x00\n        /* \"#utility.yul\":6784:6793   */\n      dup4\n        /* \"#utility.yul\":6780:6797   */\n      add\n        /* \"#utility.yul\":6773:6820   */\n      mstore\n        /* \"#utility.yul\":6837:6968   */\n      tag_271\n        /* \"#utility.yul\":6963:6967   */\n      dup2\n        /* \"#utility.yul\":6837:6968   */\n      tag_245\n      jump\t// in\n    tag_271:\n        /* \"#utility.yul\":6829:6968   */\n      swap1\n      pop\n        /* \"#utility.yul\":6556:6975   */\n      swap2\n      swap1\n      pop\n      jump\t// out\n        /* \"#utility.yul\":6981:7400   */\n    tag_87:\n        /* \"#utility.yul\":7147:7151   */\n      0x00\n        /* \"#utility.yul\":7185:7187   */\n      0x20\n        /* \"#utility.yul\":7174:7183   */\n      dup3\n        /* \"#utility.yul\":7170:7188   */\n      add\n        /* \"#utility.yul\":7162:7188   */\n      swap1\n      pop\n        /* \"#utility.yul\":7234:7243   */\n      dup2\n        /* \"#utility.yul\":7228:7232   */\n      dup2\n        /* \"#utility.yul\":7224:7244   */\n      sub\n        /* \"#utility.yul\":7220:7221   */\n      0x00\n        /* \"#utility.yul\":7209:7218   */\n      dup4\n        /* \"#utility.yul\":7205:7222   */\n      add\n        /* \"#utility.yul\":7198:7245   */\n      mstore\n        /* \"#utility.yul\":7262:7393   */\n      tag_273\n        /* \"#utility.yul\":7388:7392   */\n      dup2\n        /* \"#utility.yul\":7262:7393   */\n      tag_250\n      jump\t// in\n    tag_273:\n        /* \"#utility.yul\":7254:7393   */\n      swap1\n      pop\n        /* \"#utility.yul\":6981:7400   */\n      swap2\n      swap1\n      pop\n      jump\t// out\n        /* \"#utility.yul\":7406:7825   */\n    tag_81:\n        /* \"#utility.yul\":7572:7576   */\n      0x00\n        /* \"#utility.yul\":7610:7612   */\n      0x20\n        /* \"#utility.yul\":7599:7608   */\n      dup3\n        /* \"#utility.yul\":7595:7613   */\n      add\n        /* \"#utility.yul\":7587:7613   */\n      swap1\n      pop\n        /* \"#utility.yul\":7659:7668   */\n      dup2\n        /* \"#utility.yul\":7653:7657   */\n      dup2\n        /* \"#utility.yul\":7649:7669   */\n      sub\n        /* \"#utility.yul\":7645:7646   */\n      0x00\n        /* \"#utility.yul\":7634:7643   */\n      dup4\n        /* \"#utility.yul\":7630:7647   */\n      add\n        /* \"#utility.yul\":7623:7670   */\n      mstore\n        /* \"#utility.yul\":7687:7818   */\n      tag_275\n        /* \"#utility.yul\":7813:7817   */\n      dup2\n        /* \"#utility.yul\":7687:7818   */\n      tag_255\n      jump\t// in\n    tag_275:\n        /* \"#utility.yul\":7679:7818   */\n      swap1\n      pop\n        /* \"#utility.yul\":7406:7825   */\n      swap2\n      swap1\n      pop\n      jump\t// out\n        /* \"#utility.yul\":7831:8053   */\n    tag_27:\n        /* \"#utility.yul\":7924:7928   */\n      0x00\n        /* \"#utility.yul\":7962:7964   */\n      0x20\n        /* \"#utility.yul\":7951:7960   */\n      dup3\n        /* \"#utility.yul\":7947:7965   */\n      add\n        /* \"#utility.yul\":7939:7965   */\n      swap1\n      pop\n        /* \"#utility.yul\":7975:8046   */\n      tag_277\n        /* \"#utility.yul\":8043:8044   */\n      0x00\n        /* \"#utility.yul\":8032:8041   */\n      dup4\n        /* \"#utility.yul\":8028:8045   */\n      add\n        /* \"#utility.yul\":8019:8025   */\n      dup5\n        /* \"#utility.yul\":7975:8046   */\n      tag_260\n      jump\t// in\n    tag_277:\n        /* \"#utility.yul\":7831:8053   */\n      swap3\n      swap2\n      pop\n      pop\n      jump\t// out\n        /* \"#utility.yul\":8059:8501   */\n    tag_32:\n        /* \"#utility.yul\":8208:8212   */\n      0x00\n        /* \"#utility.yul\":8246:8248   */\n      0x60\n        /* \"#utility.yul\":8235:8244   */\n      dup3\n        /* \"#utility.yul\":8231:8249   */\n      add\n        /* \"#utility.yul\":8223:8249   */\n      swap1\n      pop\n        /* \"#utility.yul\":8259:8330   */\n      tag_279\n        /* \"#utility.yul\":8327:8328   */\n      0x00\n        /* \"#utility.yul\":8316:8325   */\n      dup4\n        /* \"#utility.yul\":8312:8329   */\n      add\n        /* \"#utility.yul\":8303:8309   */\n      dup7\n        /* \"#utility.yul\":8259:8330   */\n      tag_260\n      jump\t// in\n    tag_279:\n        /* \"#utility.yul\":8340:8412   */\n      tag_280\n        /* \"#utility.yul\":8408:8410   */\n      0x20\n        /* \"#utility.yul\":8397:8406   */\n      dup4\n        /* \"#utility.yul\":8393:8411   */\n      add\n        /* \"#utility.yul\":8384:8390   */\n      dup6\n        /* \"#utility.yul\":8340:8412   */\n      tag_221\n      jump\t// in\n    tag_280:\n        /* \"#utility.yul\":8422:8494   */\n      tag_281\n        /* \"#utility.yul\":8490:8492   */\n      0x40\n        /* \"#utility.yul\":8479:8488   */\n      dup4\n        /* \"#utility.yul\":8475:8493   */\n      add\n        /* \"#utility.yul\":8466:8472   */\n      dup5\n        /* \"#utility.yul\":8422:8494   */\n      tag_260\n      jump\t// in\n    tag_281:\n        /* \"#utility.yul\":8059:8501   */\n      swap5\n      swap4\n      pop\n      pop\n      pop\n      pop\n      jump\t// out\n        /* \"#utility.yul\":8507:9238   */\n    tag_37:\n        /* \"#utility.yul\":8720:8724   */\n      0x00\n        /* \"#utility.yul\":8758:8761   */\n      0xa0\n        /* \"#utility.yul\":8747:8756   */\n      dup3\n        /* \"#utility.yul\":8743:8762   */\n      add\n        /* \"#utility.yul\":8735:8762   */\n      swap1\n      pop\n        /* \"#utility.yul\":8772:8843   */\n      tag_283\n        /* \"#utility.yul\":8840:8841   */\n      0x00\n        /* \"#utility.yul\":8829:8838   */\n      dup4\n        /* \"#utility.yul\":8825:8842   */\n      add\n        /* \"#utility.yul\":8816:8822   */\n      dup9\n        /* \"#utility.yul\":8772:8843   */\n      tag_260\n      jump\t// in\n    tag_283:\n        /* \"#utility.yul\":8890:8899   */\n      dup2\n        /* \"#utility.yul\":8884:8888   */\n      dup2\n        /* \"#utility.yul\":8880:8900   */\n      sub\n        /* \"#utility.yul\":8875:8877   */\n      0x20\n        /* \"#utility.yul\":8864:8873   */\n      dup4\n        /* \"#utility.yul\":8860:8878   */\n      add\n        /* \"#utility.yul\":8853:8901   */\n      mstore\n        /* \"#utility.yul\":8918:8996   */\n      tag_284\n        /* \"#utility.yul\":8991:8995   */\n      dup2\n        /* \"#utility.yul\":8982:8988   */\n      dup8\n        /* \"#utility.yul\":8918:8996   */\n      tag_225\n      jump\t// in\n    tag_284:\n        /* \"#utility.yul\":8910:8996   */\n      swap1\n      pop\n        /* \"#utility.yul\":9006:9078   */\n      tag_285\n        /* \"#utility.yul\":9074:9076   */\n      0x40\n        /* \"#utility.yul\":9063:9072   */\n      dup4\n        /* \"#utility.yul\":9059:9077   */\n      add\n        /* \"#utility.yul\":9050:9056   */\n      dup7\n        /* \"#utility.yul\":9006:9078   */\n      tag_260\n      jump\t// in\n    tag_285:\n        /* \"#utility.yul\":9088:9154   */\n      tag_286\n        /* \"#utility.yul\":9150:9152   */\n      0x60\n        /* \"#utility.yul\":9139:9148   */\n      dup4\n        /* \"#utility.yul\":9135:9153   */\n      add\n        /* \"#utility.yul\":9126:9132   */\n      dup6\n        /* \"#utility.yul\":9088:9154   */\n      tag_217\n      jump\t// in\n    tag_286:\n        /* \"#utility.yul\":9164:9231   */\n      tag_287\n        /* \"#utility.yul\":9226:9229   */\n      0x80\n        /* \"#utility.yul\":9215:9224   */\n      dup4\n        /* \"#utility.yul\":9211:9230   */\n      add\n        /* \"#utility.yul\":9202:9208   */\n      dup5\n        /* \"#utility.yul\":9164:9231   */\n      tag_217\n      jump\t// in\n    tag_287:\n        /* \"#utility.yul\":8507:9238   */\n      swap7\n      swap6\n      pop\n      pop\n      pop\n      pop\n      pop\n      pop\n      jump\t// out\n        /* \"#utility.yul\":9244:9373   */\n    tag_175:\n        /* \"#utility.yul\":9278:9284   */\n      0x00\n        /* \"#utility.yul\":9305:9325   */\n      tag_289\n      tag_290\n      jump\t// in\n    tag_289:\n        /* \"#utility.yul\":9295:9325   */\n      swap1\n      pop\n        /* \"#utility.yul\":9334:9367   */\n      tag_291\n        /* \"#utility.yul\":9362:9366   */\n      dup3\n        /* \"#utility.yul\":9354:9360   */\n      dup3\n        /* \"#utility.yul\":9334:9367   */\n      tag_292\n      jump\t// in\n    tag_291:\n        /* \"#utility.yul\":9244:9373   */\n      swap2\n      swap1\n      pop\n      jump\t// out\n        /* \"#utility.yul\":9379:9454   */\n    tag_290:\n        /* \"#utility.yul\":9412:9418   */\n      0x00\n        /* \"#utility.yul\":9445:9447   */\n      0x40\n        /* \"#utility.yul\":9439:9448   */\n      mload\n        /* \"#utility.yul\":9429:9448   */\n      swap1\n      pop\n        /* \"#utility.yul\":9379:9454   */\n      swap1\n      jump\t// out\n        /* \"#utility.yul\":9460:9768   */\n    tag_174:\n        /* \"#utility.yul\":9522:9526   */\n      0x00\n        /* \"#utility.yul\":9612:9630   */\n      0xffffffffffffffff\n        /* \"#utility.yul\":9604:9610   */\n      dup3\n        /* \"#utility.yul\":9601:9631   */\n      gt\n        /* \"#utility.yul\":9598:9654   */\n      iszero\n      tag_295\n      jumpi\n        /* \"#utility.yul\":9634:9652   */\n      tag_296\n      tag_297\n      jump\t// in\n    tag_296:\n        /* \"#utility.yul\":9598:9654   */\n    tag_295:\n        /* \"#utility.yul\":9672:9701   */\n      tag_298\n        /* \"#utility.yul\":9694:9700   */\n      dup3\n        /* \"#utility.yul\":9672:9701   */\n      tag_234\n      jump\t// in\n    tag_298:\n        /* \"#utility.yul\":9664:9701   */\n      swap1\n      pop\n        /* \"#utility.yul\":9756:9760   */\n      0x20\n        /* \"#utility.yul\":9750:9754   */\n      dup2\n        /* \"#utility.yul\":9746:9761   */\n      add\n        /* \"#utility.yul\":9738:9761   */\n      swap1\n      pop\n        /* \"#utility.yul\":9460:9768   */\n      swap2\n      swap1\n      pop\n      jump\t// out\n        /* \"#utility.yul\":9774:9873   */\n    tag_228:\n        /* \"#utility.yul\":9826:9832   */\n      0x00\n        /* \"#utility.yul\":9860:9865   */\n      dup2\n        /* \"#utility.yul\":9854:9866   */\n      mload\n        /* \"#utility.yul\":9844:9866   */\n      swap1\n      pop\n        /* \"#utility.yul\":9774:9873   */\n      swap2\n      swap1\n      pop\n      jump\t// out\n        /* \"#utility.yul\":9879:10048   */\n    tag_230:\n        /* \"#utility.yul\":9963:9974   */\n      0x00\n        /* \"#utility.yul\":9997:10003   */\n      dup3\n        /* \"#utility.yul\":9992:9995   */\n      dup3\n        /* \"#utility.yul\":9985:10004   */\n      mstore\n        /* \"#utility.yul\":10037:10041   */\n      0x20\n        /* \"#utility.yul\":10032:10035   */\n      dup3\n        /* \"#utility.yul\":10028:10042   */\n      add\n        /* \"#utility.yul\":10013:10042   */\n      swap1\n      pop\n        /* \"#utility.yul\":9879:10048   */\n      swap3\n      swap2\n      pop\n      pop\n      jump\t// out\n        /* \"#utility.yul\":10054:10359   */\n    tag_92:\n        /* \"#utility.yul\":10094:10097   */\n      0x00\n        /* \"#utility.yul\":10113:10133   */\n      tag_302\n        /* \"#utility.yul\":10131:10132   */\n      dup3\n        /* \"#utility.yul\":10113:10133   */\n      tag_263\n      jump\t// in\n    tag_302:\n        /* \"#utility.yul\":10108:10133   */\n      swap2\n      pop\n        /* \"#utility.yul\":10147:10167   */\n      tag_303\n        /* \"#utility.yul\":10165:10166   */\n      dup4\n        /* \"#utility.yul\":10147:10167   */\n      tag_263\n      jump\t// in\n    tag_303:\n        /* \"#utility.yul\":10142:10167   */\n      swap3\n      pop\n        /* \"#utility.yul\":10301:10302   */\n      dup3\n        /* \"#utility.yul\":10233:10299   */\n      0xffffffffffffffffffffffffffffffffffffffffffffffffffffffffffffffff\n        /* \"#utility.yul\":10229:10303   */\n      sub\n        /* \"#utility.yul\":10226:10227   */\n      dup3\n        /* \"#utility.yul\":10223:10304   */\n      gt\n        /* \"#utility.yul\":10220:10327   */\n      iszero\n      tag_304\n      jumpi\n        /* \"#utility.yul\":10307:10325   */\n      tag_305\n      tag_306\n      jump\t// in\n    tag_305:\n        /* \"#utility.yul\":10220:10327   */\n    tag_304:\n        /* \"#utility.yul\":10351:10352   */\n      dup3\n        /* \"#utility.yul\":10348:10349   */\n      dup3\n        /* \"#utility.yul\":10344:10353   */\n      add\n        /* \"#utility.yul\":10337:10353   */\n      swap1\n      pop\n        /* \"#utility.yul\":10054:10359   */\n      swap3\n      swap2\n      pop\n      pop\n      jump\t// out\n        /* \"#utility.yul\":10365:10461   */\n    tag_307:\n        /* \"#utility.yul\":10402:10409   */\n      0x00\n        /* \"#utility.yul\":10431:10455   */\n      tag_309\n        /* \"#utility.yul\":10449:10454   */\n      dup3\n        /* \"#utility.yul\":10431:10455   */\n      tag_310\n      jump\t// in\n    tag_309:\n        /* \"#utility.yul\":10420:10455   */\n      swap1\n      pop\n        /* \"#utility.yul\":10365:10461   */\n      swap2\n      swap1\n      pop\n      jump\t// out\n        /* \"#utility.yul\":10467:10557   */\n    tag_220:\n        /* \"#utility.yul\":10501:10508   */\n      0x00\n        /* \"#utility.yul\":10544:10549   */\n      dup2\n        /* \"#utility.yul\":10537:10550   */\n      iszero\n        /* \"#utility.yul\":10530:10551   */\n      iszero\n        /* \"#utility.yul\":10519:10551   */\n      swap1\n      pop\n        /* \"#utility.yul\":10467:10557   */\n      swap2\n      swap1\n      pop\n      jump\t// out\n        /* \"#utility.yul\":10563:10640   */\n    tag_224:\n        /* \"#utility.yul\":10600:10607   */\n      0x00\n        /* \"#utility.yul\":10629:10634   */\n      dup2\n        /* \"#utility.yul\":10618:10634   */\n      swap1\n      pop\n        /* \"#utility.yul\":10563:10640   */\n      swap2\n      swap1\n      pop\n      jump\t// out\n        /* \"#utility.yul\":10646:10772   */\n    tag_310:\n        /* \"#utility.yul\":10683:10690   */\n      0x00\n        /* \"#utility.yul\":10723:10765   */\n      0xffffffffffffffffffffffffffffffffffffffff\n        /* \"#utility.yul\":10716:10721   */\n      dup3\n        /* \"#utility.yul\":10712:10766   */\n      and\n        /* \"#utility.yul\":10701:10766   */\n      swap1\n      pop\n        /* \"#utility.yul\":10646:10772   */\n      swap2\n      swap1\n      pop\n      jump\t// out\n        /* \"#utility.yul\":10778:10855   */\n    tag_263:\n        /* \"#utility.yul\":10815:10822   */\n      0x00\n        /* \"#utility.yul\":10844:10849   */\n      dup2\n        /* \"#utility.yul\":10833:10849   */\n      swap1\n      pop\n        /* \"#utility.yul\":10778:10855   */\n      swap2\n      swap1\n      pop\n      jump\t// out\n        /* \"#utility.yul\":10861:11015   */\n    tag_180:\n        /* \"#utility.yul\":10945:10951   */\n      dup3\n        /* \"#utility.yul\":10940:10943   */\n      dup2\n        /* \"#utility.yul\":10935:10938   */\n      dup4\n        /* \"#utility.yul\":10922:10952   */\n      calldatacopy\n        /* \"#utility.yul\":11007:11008   */\n      0x00\n        /* \"#utility.yul\":10998:11004   */\n      dup4\n        /* \"#utility.yul\":10993:10996   */\n      dup4\n        /* \"#utility.yul\":10989:11005   */\n      add\n        /* \"#utility.yul\":10982:11009   */\n      mstore\n        /* \"#utility.yul\":10861:11015   */\n      pop\n      pop\n      pop\n      jump\t// out\n        /* \"#utility.yul\":11021:11328   */\n    tag_232:\n        /* \"#utility.yul\":11089:11090   */\n      0x00\n        /* \"#utility.yul\":11099:11212   */\n    tag_317:\n        /* \"#utility.yul\":11113:11119   */\n      dup4\n        /* \"#utility.yul\":11110:11111   */\n      dup2\n        /* \"#utility.yul\":11107:11120   */\n      lt\n        /* \"#utility.yul\":11099:11212   */\n      iszero\n      tag_319\n      jumpi\n        /* \"#utility.yul\":11198:11199   */\n      dup1\n        /* \"#utility.yul\":11193:11196   */\n      dup3\n        /* \"#utility.yul\":11189:11200   */\n      add\n        /* \"#utility.yul\":11183:11201   */\n      mload\n        /* \"#utility.yul\":11179:11180   */\n      dup2\n        /* \"#utility.yul\":11174:11177   */\n      dup5\n        /* \"#utility.yul\":11170:11181   */\n      add\n        /* \"#utility.yul\":11163:11202   */\n      mstore\n        /* \"#utility.yul\":11135:11137   */\n      0x20\n        /* \"#utility.yul\":11132:11133   */\n      dup2\n        /* \"#utility.yul\":11128:11138   */\n      add\n        /* \"#utility.yul\":11123:11138   */\n      swap1\n      pop\n        /* \"#utility.yul\":11099:11212   */\n      jump(tag_317)\n    tag_319:\n        /* \"#utility.yul\":11230:11236   */\n      dup4\n        /* \"#utility.yul\":11227:11228   */\n      dup2\n        /* \"#utility.yul\":11224:11237   */\n      gt\n        /* \"#utility.yul\":11221:11322   */\n      iszero\n      tag_320\n      jumpi\n        /* \"#utility.yul\":11310:11311   */\n      0x00\n        /* \"#utility.yul\":11301:11307   */\n      dup5\n        /* \"#utility.yul\":11296:11299   */\n      dup5\n        /* \"#utility.yul\":11292:11308   */\n      add\n        /* \"#utility.yul\":11285:11312   */\n      mstore\n        /* \"#utility.yul\":11221:11322   */\n    tag_320:\n        /* \"#utility.yul\":11070:11328   */\n      pop\n        /* \"#utility.yul\":11021:11328   */\n      pop\n      pop\n      pop\n      jump\t// out\n        /* \"#utility.yul\":11334:11654   */\n    tag_131:\n        /* \"#utility.yul\":11378:11384   */\n      0x00\n        /* \"#utility.yul\":11415:11416   */\n      0x02\n        /* \"#utility.yul\":11409:11413   */\n      dup3\n        /* \"#utility.yul\":11405:11417   */\n      div\n        /* \"#utility.yul\":11395:11417   */\n      swap1\n      pop\n        /* \"#utility.yul\":11462:11463   */\n      0x01\n        /* \"#utility.yul\":11456:11460   */\n      dup3\n        /* \"#utility.yul\":11452:11464   */\n      and\n        /* \"#utility.yul\":11483:11501   */\n      dup1\n        /* \"#utility.yul\":11473:11554   */\n      tag_322\n      jumpi\n        /* \"#utility.yul\":11539:11543   */\n      0x7f\n        /* \"#utility.yul\":11531:11537   */\n      dup3\n        /* \"#utility.yul\":11527:11544   */\n      and\n        /* \"#utility.yul\":11517:11544   */\n      swap2\n      pop\n        /* \"#utility.yul\":11473:11554   */\n    tag_322:\n        /* \"#utility.yul\":11601:11603   */\n      0x20\n        /* \"#utility.yul\":11593:11599   */\n      dup3\n        /* \"#utility.yul\":11590:11604   */\n      lt\n        /* \"#utility.yul\":11570:11588   */\n      dup2\n        /* \"#utility.yul\":11567:11605   */\n      eq\n        /* \"#utility.yul\":11564:11648   */\n      iszero\n      tag_323\n      jumpi\n        /* \"#utility.yul\":11620:11638   */\n      tag_324\n      tag_325\n      jump\t// in\n    tag_324:\n        /* \"#utility.yul\":11564:11648   */\n    tag_323:\n        /* \"#utility.yul\":11385:11654   */\n      pop\n        /* \"#utility.yul\":11334:11654   */\n      swap2\n      swap1\n      pop\n      jump\t// out\n        /* \"#utility.yul\":11660:11941   */\n    tag_292:\n        /* \"#utility.yul\":11743:11770   */\n      tag_327\n        /* \"#utility.yul\":11765:11769   */\n      dup3\n        /* \"#utility.yul\":11743:11770   */\n      tag_234\n      jump\t// in\n    tag_327:\n        /* \"#utility.yul\":11735:11741   */\n      dup2\n        /* \"#utility.yul\":11731:11771   */\n      add\n        /* \"#utility.yul\":11873:11879   */\n      dup2\n        /* \"#utility.yul\":11861:11871   */\n      dup2\n        /* \"#utility.yul\":11858:11880   */\n      lt\n        /* \"#utility.yul\":11837:11855   */\n      0xffffffffffffffff\n        /* \"#utility.yul\":11825:11835   */\n      dup3\n        /* \"#utility.yul\":11822:11856   */\n      gt\n        /* \"#utility.yul\":11819:11881   */\n      or\n        /* \"#utility.yul\":11816:11904   */\n      iszero\n      tag_328\n      jumpi\n        /* \"#utility.yul\":11884:11902   */\n      tag_329\n      tag_297\n      jump\t// in\n    tag_329:\n        /* \"#utility.yul\":11816:11904   */\n    tag_328:\n        /* \"#utility.yul\":11924:11934   */\n      dup1\n        /* \"#utility.yul\":11920:11922   */\n      0x40\n        /* \"#utility.yul\":11913:11935   */\n      mstore\n        /* \"#utility.yul\":11703:11941   */\n      pop\n        /* \"#utility.yul\":11660:11941   */\n      pop\n      pop\n      jump\t// out\n        /* \"#utility.yul\":11947:12180   */\n    tag_66:\n        /* \"#utility.yul\":11986:11989   */\n      0x00\n        /* \"#utility.yul\":12009:12033   */\n      tag_331\n        /* \"#utility.yul\":12027:12032   */\n      dup3\n        /* \"#utility.yul\":12009:12033   */\n      tag_263\n      jump\t// in\n    tag_331:\n        /* \"#utility.yul\":12000:12033   */\n      swap2\n      pop\n        /* \"#utility.yul\":12055:12121   */\n      0xffffffffffffffffffffffffffffffffffffffffffffffffffffffffffffffff\n        /* \"#utility.yul\":12048:12053   */\n      dup3\n        /* \"#utility.yul\":12045:12122   */\n      eq\n        /* \"#utility.yul\":12042:12145   */\n      iszero\n      tag_332\n      jumpi\n        /* \"#utility.yul\":12125:12143   */\n      tag_333\n      tag_306\n      jump\t// in\n    tag_333:\n        /* \"#utility.yul\":12042:12145   */\n    tag_332:\n        /* \"#utility.yul\":12172:12173   */\n      0x01\n        /* \"#utility.yul\":12165:12170   */\n      dup3\n        /* \"#utility.yul\":12161:12174   */\n      add\n        /* \"#utility.yul\":12154:12174   */\n      swap1\n      pop\n        /* \"#utility.yul\":11947:12180   */\n      swap2\n      swap1\n      pop\n      jump\t// out\n        /* \"#utility.yul\":12186:12366   */\n    tag_306:\n        /* \"#utility.yul\":12234:12311   */\n      0x4e487b7100000000000000000000000000000000000000000000000000000000\n        /* \"#utility.yul\":12231:12232   */\n      0x00\n        /* \"#utility.yul\":12224:12312   */\n      mstore\n        /* \"#utility.yul\":12331:12335   */\n      0x11\n        /* \"#utility.yul\":12328:12329   */\n      0x04\n        /* \"#utility.yul\":12321:12336   */\n      mstore\n        /* \"#utility.yul\":12355:12359   */\n      0x24\n        /* \"#utility.yul\":12352:12353   */\n      0x00\n        /* \"#utility.yul\":12345:12360   */\n      revert\n        /* \"#utility.yul\":12372:12552   */\n    tag_325:\n        /* \"#utility.yul\":12420:12497   */\n      0x4e487b7100000000000000000000000000000000000000000000000000000000\n        /* \"#utility.yul\":12417:12418   */\n      0x00\n        /* \"#utility.yul\":12410:12498   */\n      mstore\n        /* \"#utility.yul\":12517:12521   */\n      0x22\n        /* \"#utility.yul\":12514:12515   */\n      0x04\n        /* \"#utility.yul\":12507:12522   */\n      mstore\n        /* \"#utility.yul\":12541:12545   */\n      0x24\n        /* \"#utility.yul\":12538:12539   */\n      0x00\n        /* \"#utility.yul\":12531:12546   */\n      revert\n        /* \"#utility.yul\":12558:12738   */\n    tag_57:\n        /* \"#utility.yul\":12606:12683   */\n      0x4e487b7100000000000000000000000000000000000000000000000000000000\n        /* \"#utility.yul\":12603:12604   */\n      0x00\n        /* \"#utility.yul\":12596:12684   */\n      mstore\n        /* \"#utility.yul\":12703:12707   */\n      0x32\n        /* \"#utility.yul\":12700:12701   */\n      0x04\n        /* \"#utility.yul\":12693:12708   */\n      mstore\n        /* \"#utility.yul\":12727:12731   */\n      0x24\n        /* \"#utility.yul\":12724:12725   */\n      0x00\n        /* \"#utility.yul\":12717:12732   */\n      revert\n        /* \"#utility.yul\":12744:12924   */\n    tag_297:\n        /* \"#utility.yul\":12792:12869   */\n      0x4e487b7100000000000000000000000000000000000000000000000000000000\n        /* \"#utility.yul\":12789:12790   */\n      0x00\n        /* \"#utility.yul\":12782:12870   */\n      mstore\n        /* \"#utility.yul\":12889:12893   */\n      0x41\n        /* \"#utility.yul\":12886:12887   */\n      0x04\n        /* \"#utility.yul\":12879:12894   */\n      mstore\n        /* \"#utility.yul\":12913:12917   */\n      0x24\n        /* \"#utility.yul\":12910:12911   */\n      0x00\n        /* \"#utility.yul\":12903:12918   */\n      revert\n        /* \"#utility.yul\":12930:13047   */\n    tag_189:\n        /* \"#utility.yul\":13039:13040   */\n      0x00\n        /* \"#utility.yul\":13036:13037   */\n      dup1\n        /* \"#utility.yul\":13029:13041   */\n      revert\n        /* \"#utility.yul\":13053:13170   */\n    tag_178:\n        /* \"#utility.yul\":13162:13163   */\n      0x00\n        /* \"#utility.yul\":13159:13160   */\n      dup1\n        /* \"#utility.yul\":13152:13164   */\n      revert\n        /* \"#utility.yul\":13176:13293   */\n    tag_210:\n        /* \"#utility.yul\":13285:13286   */\n      0x00\n        /* \"#utility.yul\":13282:13283   */\n      dup1\n        /* \"#utility.yul\":13275:13287   */\n      revert\n        /* \"#utility.yul\":13299:13416   */\n    tag_198:\n        /* \"#utility.yul\":13408:13409   */\n      0x00\n        /* \"#utility.yul\":13405:13406   */\n      dup1\n        /* \"#utility.yul\":13398:13410   */\n      revert\n        /* \"#utility.yul\":13422:13524   */\n    tag_234:\n        /* \"#utility.yul\":13463:13469   */\n      0x00\n        /* \"#utility.yul\":13514:13516   */\n      0x1f\n        /* \"#utility.yul\":13510:13517   */\n      not\n        /* \"#utility.yul\":13505:13507   */\n      0x1f\n        /* \"#utility.yul\":13498:13503   */\n      dup4\n        /* \"#utility.yul\":13494:13508   */\n      add\n        /* \"#utility.yul\":13490:13518   */\n      and\n        /* \"#utility.yul\":13480:13518   */\n      swap1\n      pop\n        /* \"#utility.yul\":13422:13524   */\n      swap2\n      swap1\n      pop\n      jump\t// out\n        /* \"#utility.yul\":13530:13705   */\n    tag_239:\n        /* \"#utility.yul\":13670:13697   */\n      0x5961207469656e6573206465726563686f206120766f74617200000000000000\n        /* \"#utility.yul\":13666:13667   */\n      0x00\n        /* \"#utility.yul\":13658:13664   */\n      dup3\n        /* \"#utility.yul\":13654:13668   */\n      add\n        /* \"#utility.yul\":13647:13698   */\n      mstore\n        /* \"#utility.yul\":13530:13705   */\n      pop\n      jump\t// out\n        /* \"#utility.yul\":13711:13883   */\n    tag_244:\n        /* \"#utility.yul\":13851:13875   */\n      0x566f74616e7465206e6f20656e636f6e747261646f2100000000000000000000\n        /* \"#utility.yul\":13847:13848   */\n      0x00\n        /* \"#utility.yul\":13839:13845   */\n      dup3\n        /* \"#utility.yul\":13835:13849   */\n      add\n        /* \"#utility.yul\":13828:13876   */\n      mstore\n        /* \"#utility.yul\":13711:13883   */\n      pop\n      jump\t// out\n        /* \"#utility.yul\":13889:14066   */\n    tag_249:\n        /* \"#utility.yul\":14029:14058   */\n      0x5475206e6f206572657320656c2050726f706965746172696f20210000000000\n        /* \"#utility.yul\":14025:14026   */\n      0x00\n        /* \"#utility.yul\":14017:14023   */\n      dup3\n        /* \"#utility.yul\":14013:14027   */\n      add\n        /* \"#utility.yul\":14006:14059   */\n      mstore\n        /* \"#utility.yul\":13889:14066   */\n      pop\n      jump\t// out\n        /* \"#utility.yul\":14072:14297   */\n    tag_254:\n        /* \"#utility.yul\":14212:14246   */\n      0x596120766f74617374652c206e6f2070756564657320766f6c76657220612068\n        /* \"#utility.yul\":14208:14209   */\n      0x00\n        /* \"#utility.yul\":14200:14206   */\n      dup3\n        /* \"#utility.yul\":14196:14210   */\n      add\n        /* \"#utility.yul\":14189:14247   */\n      mstore\n        /* \"#utility.yul\":14281:14289   */\n      0x616365726c6f0000000000000000000000000000000000000000000000000000\n        /* \"#utility.yul\":14276:14278   */\n      0x20\n        /* \"#utility.yul\":14268:14274   */\n      dup3\n        /* \"#utility.yul\":14264:14279   */\n      add\n        /* \"#utility.yul\":14257:14290   */\n      mstore\n        /* \"#utility.yul\":14072:14297   */\n      pop\n      jump\t// out\n        /* \"#utility.yul\":14303:14478   */\n    tag_259:\n        /* \"#utility.yul\":14443:14470   */\n      0x4e6f207469656e6573206465726563686f206120566f74617200000000000000\n        /* \"#utility.yul\":14439:14440   */\n      0x00\n        /* \"#utility.yul\":14431:14437   */\n      dup3\n        /* \"#utility.yul\":14427:14441   */\n      add\n        /* \"#utility.yul\":14420:14471   */\n      mstore\n        /* \"#utility.yul\":14303:14478   */\n      pop\n      jump\t// out\n        /* \"#utility.yul\":14484:14606   */\n    tag_184:\n        /* \"#utility.yul\":14557:14581   */\n      tag_349\n        /* \"#utility.yul\":14575:14580   */\n      dup2\n        /* \"#utility.yul\":14557:14581   */\n      tag_307\n      jump\t// in\n    tag_349:\n        /* \"#utility.yul\":14550:14555   */\n      dup2\n        /* \"#utility.yul\":14547:14582   */\n      eq\n        /* \"#utility.yul\":14537:14600   */\n      tag_350\n      jumpi\n        /* \"#utility.yul\":14596:14597   */\n      0x00\n        /* \"#utility.yul\":14593:14594   */\n      dup1\n        /* \"#utility.yul\":14586:14598   */\n      revert\n        /* \"#utility.yul\":14537:14600   */\n    tag_350:\n        /* \"#utility.yul\":14484:14606   */\n      pop\n      jump\t// out\n        /* \"#utility.yul\":14612:14734   */\n    tag_194:\n        /* \"#utility.yul\":14685:14709   */\n      tag_352\n        /* \"#utility.yul\":14703:14708   */\n      dup2\n        /* \"#utility.yul\":14685:14709   */\n      tag_263\n      jump\t// in\n    tag_352:\n        /* \"#utility.yul\":14678:14683   */\n      dup2\n        /* \"#utility.yul\":14675:14710   */\n      eq\n        /* \"#utility.yul\":14665:14728   */\n      tag_353\n      jumpi\n        /* \"#utility.yul\":14724:14725   */\n      0x00\n        /* \"#utility.yul\":14721:14722   */\n      dup1\n        /* \"#utility.yul\":14714:14726   */\n      revert\n        /* \"#utility.yul\":14665:14728   */\n    tag_353:\n        /* \"#utility.yul\":14612:14734   */\n      pop\n      jump\t// out\n\n    auxdata: 0xa264697066735822122075485735c03a5f6c97220017dcfc5145e1135fa0ae87488d2f0d5247d534043a64736f6c63430008070033\n}\n",
				"bytecode": {
					"linkReferences": {},
					"object": "60806040526000805560016002556040518060600160405280600181526020017f486f73706974616c2070617261204d6173636f7461730000000000000000000081526020016000815250600460008201518160000155602082015181600101556040820151816002015550506040518060600160405280600281526020017f4375696461646f2064656c206d6564696f20616d6269656e746500000000000081526020016000815250600760008201518160000155602082015181600101556040820151816002015550503480156100d757600080fd5b5033600160006101000a81548173ffffffffffffffffffffffffffffffffffffffff021916908373ffffffffffffffffffffffffffffffffffffffff160217905550611650806101286000396000f3fe608060405234801561001057600080fd5b50600436106100885760003560e01c80636097e2161161005b5780636097e216146100ff5780638bdeb3c5146101315780638d8aab9d14610165578063ae90029b1461019957610088565b8063208d748f1461008d57806320bad571146100a957806321606831146100c557806327d9b2a5146100e1575b600080fd5b6100a760048036038101906100a29190610e9e565b6101b7565b005b6100c360048036038101906100be9190610f0b565b6103d6565b005b6100df60048036038101906100da9190610f67565b6104fc565b005b6100e96107a0565b6040516100f69190611164565b60405180910390f35b61011960048036038101906101149190610f67565b610828565b6040516101289392919061117f565b60405180910390f35b61014b60048036038101906101469190610f67565b610862565b60405161015c9594939291906111b6565b60405180910390f35b61017f600480360381019061017a9190610ecb565b610b1f565b6040516101909594939291906111b6565b60405180910390f35b6101a1610c14565b6040516101ae91906110a9565b60405180910390f35b600160009054906101000a900473ffffffffffffffffffffffffffffffffffffffff1673ffffffffffffffffffffffffffffffffffffffff163373ffffffffffffffffffffffffffffffffffffffff1614610247576040517f08c379a000000000000000000000000000000000000000000000000000000000815260040161023e90611104565b60405180910390fd5b60005b600360003373ffffffffffffffffffffffffffffffffffffffff1673ffffffffffffffffffffffffffffffffffffffff168152602001908152602001600020805490508110156103d257600360003373ffffffffffffffffffffffffffffffffffffffff1673ffffffffffffffffffffffffffffffffffffffff16815260200190815260200160002081815481106102e5576102e4611476565b5b906000526020600020906004020160030160019054906101000a900460ff1615610344576040517f08c379a000000000000000000000000000000000000000000000000000000000815260040161033b906110c4565b60405180910390fd5b6001600360008473ffffffffffffffffffffffffffffffffffffffff1673ffffffffffffffffffffffffffffffffffffffff168152602001908152602001600020828154811061039757610396611476565b5b906000526020600020906004020160030160016101000a81548160ff02191690831515021790555080806103ca906113cf565b91505061024a565b5050565b600360003373ffffffffffffffffffffffffffffffffffffffff1673ffffffffffffffffffffffffffffffffffffffff1681526020019081526020016000206040518060a001604052806002548152602001848152602001838152602001600015158152602001600015158152509080600181540180825580915050600190039060005260206000209060040201600090919091909150600082015181600001556020820151816001019080519060200190610493929190610d61565b506040820151816002015560608201518160030160006101000a81548160ff02191690831515021790555060808201518160030160016101000a81548160ff0219169083151502179055505050600260008154809291906104f3906113cf565b91905055505050565b60005b600360003373ffffffffffffffffffffffffffffffffffffffff1673ffffffffffffffffffffffffffffffffffffffff1681526020019081526020016000208054905081101561074f57600360003373ffffffffffffffffffffffffffffffffffffffff1673ffffffffffffffffffffffffffffffffffffffff168152602001908152602001600020818154811061059a57610599611476565b5b906000526020600020906004020160030160019054906101000a900460ff166105f8576040517f08c379a00000000000000000000000000000000000000000000000000000000081526004016105ef90611144565b60405180910390fd5b600360003373ffffffffffffffffffffffffffffffffffffffff1673ffffffffffffffffffffffffffffffffffffffff168152602001908152602001600020818154811061064957610648611476565b5b906000526020600020906004020160030160009054906101000a900460ff16156106a8576040517f08c379a000000000000000000000000000000000000000000000000000000000815260040161069f90611124565b60405180910390fd5b6001600360003373ffffffffffffffffffffffffffffffffffffffff1673ffffffffffffffffffffffffffffffffffffffff16815260200190815260200160002082815481106106fb576106fa611476565b5b906000526020600020906004020160030160006101000a81548160ff02191690831515021790555060016000808282546107359190611282565b925050819055508080610747906113cf565b9150506104ff565b5080600460000154141561077f576001600460020160008282546107739190611282565b9250508190555061079d565b6001600760020160008282546107959190611282565b925050819055505b50565b6000806000905060005b600a805490508110156108235781600a82815481106107cc576107cb611476565b5b906000526020600020906003020160020154111561081057600a81815481106107f8576107f7611476565b5b90600052602060002090600302016002015491508092505b808061081b906113cf565b9150506107aa565b505090565b600a818154811061083857600080fd5b90600052602060002090600302016000915090508060000154908060010154908060020154905083565b6000606060008060008061087587610c48565b9050600360003373ffffffffffffffffffffffffffffffffffffffff1673ffffffffffffffffffffffffffffffffffffffff16815260200190815260200160002081815481106108c8576108c7611476565b5b906000526020600020906004020160000154600360003373ffffffffffffffffffffffffffffffffffffffff1673ffffffffffffffffffffffffffffffffffffffff168152602001908152602001600020828154811061092b5761092a611476565b5b9060005260206000209060040201600101600360003373ffffffffffffffffffffffffffffffffffffffff1673ffffffffffffffffffffffffffffffffffffffff168152602001908152602001600020838154811061098d5761098c611476565b5b906000526020600020906004020160020154600360003373ffffffffffffffffffffffffffffffffffffffff1673ffffffffffffffffffffffffffffffffffffffff16815260200190815260200160002084815481106109f0576109ef611476565b5b906000526020600020906004020160030160009054906101000a900460ff16600360003373ffffffffffffffffffffffffffffffffffffffff1673ffffffffffffffffffffffffffffffffffffffff1681526020019081526020016000208581548110610a6057610a5f611476565b5b906000526020600020906004020160030160019054906101000a900460ff16838054610a8b9061136c565b80601f0160208091040260200160405190810160405280929190818152602001828054610ab79061136c565b8015610b045780601f10610ad957610100808354040283529160200191610b04565b820191906000526020600020905b815481529060010190602001808311610ae757829003601f168201915b50505050509350955095509550955095505091939590929450565b60036020528160005260406000208181548110610b3b57600080fd5b906000526020600020906004020160009150915050806000015490806001018054610b659061136c565b80601f0160208091040260200160405190810160405280929190818152602001828054610b919061136c565b8015610bde5780601f10610bb357610100808354040283529160200191610bde565b820191906000526020600020905b815481529060010190602001808311610bc157829003601f168201915b5050505050908060020154908060030160009054906101000a900460ff16908060030160019054906101000a900460ff16905085565b6000600a610c206107a0565b81548110610c3157610c30611476565b5b906000526020600020906003020160010154905090565b600080600090505b600360003373ffffffffffffffffffffffffffffffffffffffff1673ffffffffffffffffffffffffffffffffffffffff16815260200190815260200160002080549050811015610d205782600360003373ffffffffffffffffffffffffffffffffffffffff1673ffffffffffffffffffffffffffffffffffffffff1681526020019081526020016000208281548110610cec57610ceb611476565b5b9060005260206000209060040201600001541415610d0d5780915050610d5c565b8080610d18906113cf565b915050610c50565b506040517f08c379a0000000000000000000000000000000000000000000000000000000008152600401610d53906110e4565b60405180910390fd5b919050565b828054610d6d9061136c565b90600052602060002090601f016020900481019282610d8f5760008555610dd6565b82601f10610da857805160ff1916838001178555610dd6565b82800160010185558215610dd6579182015b82811115610dd5578251825591602001919060010190610dba565b5b509050610de39190610de7565b5090565b5b80821115610e00576000816000905550600101610de8565b5090565b6000610e17610e1284611235565b611210565b905082815260208101848484011115610e3357610e326114d9565b5b610e3e84828561132a565b509392505050565b600081359050610e55816115ec565b92915050565b600082601f830112610e7057610e6f6114d4565b5b8135610e80848260208601610e04565b91505092915050565b600081359050610e9881611603565b92915050565b600060208284031215610eb457610eb36114e3565b5b6000610ec284828501610e46565b91505092915050565b60008060408385031215610ee257610ee16114e3565b5b6000610ef085828601610e46565b9250506020610f0185828601610e89565b9150509250929050565b60008060408385031215610f2257610f216114e3565b5b600083013567ffffffffffffffff811115610f4057610f3f6114de565b5b610f4c85828601610e5b565b9250506020610f5d85828601610e89565b9150509250929050565b600060208284031215610f7d57610f7c6114e3565b5b6000610f8b84828501610e89565b91505092915050565b610f9d816112ea565b82525050565b610fac816112f6565b82525050565b6000610fbd82611266565b610fc78185611271565b9350610fd7818560208601611339565b610fe0816114e8565b840191505092915050565b6000610ff8601983611271565b9150611003826114f9565b602082019050919050565b600061101b601683611271565b915061102682611522565b602082019050919050565b600061103e601b83611271565b91506110498261154b565b602082019050919050565b6000611061602683611271565b915061106c82611574565b604082019050919050565b6000611084601983611271565b915061108f826115c3565b602082019050919050565b6110a381611320565b82525050565b60006020820190506110be6000830184610fa3565b92915050565b600060208201905081810360008301526110dd81610feb565b9050919050565b600060208201905081810360008301526110fd8161100e565b9050919050565b6000602082019050818103600083015261111d81611031565b9050919050565b6000602082019050818103600083015261113d81611054565b9050919050565b6000602082019050818103600083015261115d81611077565b9050919050565b6000602082019050611179600083018461109a565b92915050565b6000606082019050611194600083018661109a565b6111a16020830185610fa3565b6111ae604083018461109a565b949350505050565b600060a0820190506111cb600083018861109a565b81810360208301526111dd8187610fb2565b90506111ec604083018661109a565b6111f96060830185610f94565b6112066080830184610f94565b9695505050505050565b600061121a61122b565b9050611226828261139e565b919050565b6000604051905090565b600067ffffffffffffffff8211156112505761124f6114a5565b5b611259826114e8565b9050602081019050919050565b600081519050919050565b600082825260208201905092915050565b600061128d82611320565b915061129883611320565b9250827fffffffffffffffffffffffffffffffffffffffffffffffffffffffffffffffff038211156112cd576112cc611418565b5b828201905092915050565b60006112e382611300565b9050919050565b60008115159050919050565b6000819050919050565b600073ffffffffffffffffffffffffffffffffffffffff82169050919050565b6000819050919050565b82818337600083830152505050565b60005b8381101561135757808201518184015260208101905061133c565b83811115611366576000848401525b50505050565b6000600282049050600182168061138457607f821691505b6020821081141561139857611397611447565b5b50919050565b6113a7826114e8565b810181811067ffffffffffffffff821117156113c6576113c56114a5565b5b80604052505050565b60006113da82611320565b91507fffffffffffffffffffffffffffffffffffffffffffffffffffffffffffffffff82141561140d5761140c611418565b5b600182019050919050565b7f4e487b7100000000000000000000000000000000000000000000000000000000600052601160045260246000fd5b7f4e487b7100000000000000000000000000000000000000000000000000000000600052602260045260246000fd5b7f4e487b7100000000000000000000000000000000000000000000000000000000600052603260045260246000fd5b7f4e487b7100000000000000000000000000000000000000000000000000000000600052604160045260246000fd5b600080fd5b600080fd5b600080fd5b600080fd5b6000601f19601f8301169050919050565b7f5961207469656e6573206465726563686f206120766f74617200000000000000600082015250565b7f566f74616e7465206e6f20656e636f6e747261646f2100000000000000000000600082015250565b7f5475206e6f206572657320656c2050726f706965746172696f20210000000000600082015250565b7f596120766f74617374652c206e6f2070756564657320766f6c7665722061206860008201527f616365726c6f0000000000000000000000000000000000000000000000000000602082015250565b7f4e6f207469656e6573206465726563686f206120566f74617200000000000000600082015250565b6115f5816112d8565b811461160057600080fd5b50565b61160c81611320565b811461161757600080fd5b5056fea264697066735822122075485735c03a5f6c97220017dcfc5145e1135fa0ae87488d2f0d5247d534043a64736f6c63430008070033",
					"opcodes": "PUSH1 0x80 PUSH1 0x40 MSTORE PUSH1 0x0 DUP1 SSTORE PUSH1 0x1 PUSH1 0x2 SSTORE PUSH1 0x40 MLOAD DUP1 PUSH1 0x60 ADD PUSH1 0x40 MSTORE DUP1 PUSH1 0x1 DUP2 MSTORE PUSH1 0x20 ADD PUSH32 0x486F73706974616C2070617261204D6173636F74617300000000000000000000 DUP2 MSTORE PUSH1 0x20 ADD PUSH1 0x0 DUP2 MSTORE POP PUSH1 0x4 PUSH1 0x0 DUP3 ADD MLOAD DUP2 PUSH1 0x0 ADD SSTORE PUSH1 0x20 DUP3 ADD MLOAD DUP2 PUSH1 0x1 ADD SSTORE PUSH1 0x40 DUP3 ADD MLOAD DUP2 PUSH1 0x2 ADD SSTORE POP POP PUSH1 0x40 MLOAD DUP1 PUSH1 0x60 ADD PUSH1 0x40 MSTORE DUP1 PUSH1 0x2 DUP2 MSTORE PUSH1 0x20 ADD PUSH32 0x4375696461646F2064656C206D6564696F20616D6269656E7465000000000000 DUP2 MSTORE PUSH1 0x20 ADD PUSH1 0x0 DUP2 MSTORE POP PUSH1 0x7 PUSH1 0x0 DUP3 ADD MLOAD DUP2 PUSH1 0x0 ADD SSTORE PUSH1 0x20 DUP3 ADD MLOAD DUP2 PUSH1 0x1 ADD SSTORE PUSH1 0x40 DUP3 ADD MLOAD DUP2 PUSH1 0x2 ADD SSTORE POP POP CALLVALUE DUP1 ISZERO PUSH2 0xD7 JUMPI PUSH1 0x0 DUP1 REVERT JUMPDEST POP CALLER PUSH1 0x1 PUSH1 0x0 PUSH2 0x100 EXP DUP2 SLOAD DUP2 PUSH20 0xFFFFFFFFFFFFFFFFFFFFFFFFFFFFFFFFFFFFFFFF MUL NOT AND SWAP1 DUP4 PUSH20 0xFFFFFFFFFFFFFFFFFFFFFFFFFFFFFFFFFFFFFFFF AND MUL OR SWAP1 SSTORE POP PUSH2 0x1650 DUP1 PUSH2 0x128 PUSH1 0x0 CODECOPY PUSH1 0x0 RETURN INVALID PUSH1 0x80 PUSH1 0x40 MSTORE CALLVALUE DUP1 ISZERO PUSH2 0x10 JUMPI PUSH1 0x0 DUP1 REVERT JUMPDEST POP PUSH1 0x4 CALLDATASIZE LT PUSH2 0x88 JUMPI PUSH1 0x0 CALLDATALOAD PUSH1 0xE0 SHR DUP1 PUSH4 0x6097E216 GT PUSH2 0x5B JUMPI DUP1 PUSH4 0x6097E216 EQ PUSH2 0xFF JUMPI DUP1 PUSH4 0x8BDEB3C5 EQ PUSH2 0x131 JUMPI DUP1 PUSH4 0x8D8AAB9D EQ PUSH2 0x165 JUMPI DUP1 PUSH4 0xAE90029B EQ PUSH2 0x199 JUMPI PUSH2 0x88 JUMP JUMPDEST DUP1 PUSH4 0x208D748F EQ PUSH2 0x8D JUMPI DUP1 PUSH4 0x20BAD571 EQ PUSH2 0xA9 JUMPI DUP1 PUSH4 0x21606831 EQ PUSH2 0xC5 JUMPI DUP1 PUSH4 0x27D9B2A5 EQ PUSH2 0xE1 JUMPI JUMPDEST PUSH1 0x0 DUP1 REVERT JUMPDEST PUSH2 0xA7 PUSH1 0x4 DUP1 CALLDATASIZE SUB DUP2 ADD SWAP1 PUSH2 0xA2 SWAP2 SWAP1 PUSH2 0xE9E JUMP JUMPDEST PUSH2 0x1B7 JUMP JUMPDEST STOP JUMPDEST PUSH2 0xC3 PUSH1 0x4 DUP1 CALLDATASIZE SUB DUP2 ADD SWAP1 PUSH2 0xBE SWAP2 SWAP1 PUSH2 0xF0B JUMP JUMPDEST PUSH2 0x3D6 JUMP JUMPDEST STOP JUMPDEST PUSH2 0xDF PUSH1 0x4 DUP1 CALLDATASIZE SUB DUP2 ADD SWAP1 PUSH2 0xDA SWAP2 SWAP1 PUSH2 0xF67 JUMP JUMPDEST PUSH2 0x4FC JUMP JUMPDEST STOP JUMPDEST PUSH2 0xE9 PUSH2 0x7A0 JUMP JUMPDEST PUSH1 0x40 MLOAD PUSH2 0xF6 SWAP2 SWAP1 PUSH2 0x1164 JUMP JUMPDEST PUSH1 0x40 MLOAD DUP1 SWAP2 SUB SWAP1 RETURN JUMPDEST PUSH2 0x119 PUSH1 0x4 DUP1 CALLDATASIZE SUB DUP2 ADD SWAP1 PUSH2 0x114 SWAP2 SWAP1 PUSH2 0xF67 JUMP JUMPDEST PUSH2 0x828 JUMP JUMPDEST PUSH1 0x40 MLOAD PUSH2 0x128 SWAP4 SWAP3 SWAP2 SWAP1 PUSH2 0x117F JUMP JUMPDEST PUSH1 0x40 MLOAD DUP1 SWAP2 SUB SWAP1 RETURN JUMPDEST PUSH2 0x14B PUSH1 0x4 DUP1 CALLDATASIZE SUB DUP2 ADD SWAP1 PUSH2 0x146 SWAP2 SWAP1 PUSH2 0xF67 JUMP JUMPDEST PUSH2 0x862 JUMP JUMPDEST PUSH1 0x40 MLOAD PUSH2 0x15C SWAP6 SWAP5 SWAP4 SWAP3 SWAP2 SWAP1 PUSH2 0x11B6 JUMP JUMPDEST PUSH1 0x40 MLOAD DUP1 SWAP2 SUB SWAP1 RETURN JUMPDEST PUSH2 0x17F PUSH1 0x4 DUP1 CALLDATASIZE SUB DUP2 ADD SWAP1 PUSH2 0x17A SWAP2 SWAP1 PUSH2 0xECB JUMP JUMPDEST PUSH2 0xB1F JUMP JUMPDEST PUSH1 0x40 MLOAD PUSH2 0x190 SWAP6 SWAP5 SWAP4 SWAP3 SWAP2 SWAP1 PUSH2 0x11B6 JUMP JUMPDEST PUSH1 0x40 MLOAD DUP1 SWAP2 SUB SWAP1 RETURN JUMPDEST PUSH2 0x1A1 PUSH2 0xC14 JUMP JUMPDEST PUSH1 0x40 MLOAD PUSH2 0x1AE SWAP2 SWAP1 PUSH2 0x10A9 JUMP JUMPDEST PUSH1 0x40 MLOAD DUP1 SWAP2 SUB SWAP1 RETURN JUMPDEST PUSH1 0x1 PUSH1 0x0 SWAP1 SLOAD SWAP1 PUSH2 0x100 EXP SWAP1 DIV PUSH20 0xFFFFFFFFFFFFFFFFFFFFFFFFFFFFFFFFFFFFFFFF AND PUSH20 0xFFFFFFFFFFFFFFFFFFFFFFFFFFFFFFFFFFFFFFFF AND CALLER PUSH20 0xFFFFFFFFFFFFFFFFFFFFFFFFFFFFFFFFFFFFFFFF AND EQ PUSH2 0x247 JUMPI PUSH1 0x40 MLOAD PUSH32 0x8C379A000000000000000000000000000000000000000000000000000000000 DUP2 MSTORE PUSH1 0x4 ADD PUSH2 0x23E SWAP1 PUSH2 0x1104 JUMP JUMPDEST PUSH1 0x40 MLOAD DUP1 SWAP2 SUB SWAP1 REVERT JUMPDEST PUSH1 0x0 JUMPDEST PUSH1 0x3 PUSH1 0x0 CALLER PUSH20 0xFFFFFFFFFFFFFFFFFFFFFFFFFFFFFFFFFFFFFFFF AND PUSH20 0xFFFFFFFFFFFFFFFFFFFFFFFFFFFFFFFFFFFFFFFF AND DUP2 MSTORE PUSH1 0x20 ADD SWAP1 DUP2 MSTORE PUSH1 0x20 ADD PUSH1 0x0 KECCAK256 DUP1 SLOAD SWAP1 POP DUP2 LT ISZERO PUSH2 0x3D2 JUMPI PUSH1 0x3 PUSH1 0x0 CALLER PUSH20 0xFFFFFFFFFFFFFFFFFFFFFFFFFFFFFFFFFFFFFFFF AND PUSH20 0xFFFFFFFFFFFFFFFFFFFFFFFFFFFFFFFFFFFFFFFF AND DUP2 MSTORE PUSH1 0x20 ADD SWAP1 DUP2 MSTORE PUSH1 0x20 ADD PUSH1 0x0 KECCAK256 DUP2 DUP2 SLOAD DUP2 LT PUSH2 0x2E5 JUMPI PUSH2 0x2E4 PUSH2 0x1476 JUMP JUMPDEST JUMPDEST SWAP1 PUSH1 0x0 MSTORE PUSH1 0x20 PUSH1 0x0 KECCAK256 SWAP1 PUSH1 0x4 MUL ADD PUSH1 0x3 ADD PUSH1 0x1 SWAP1 SLOAD SWAP1 PUSH2 0x100 EXP SWAP1 DIV PUSH1 0xFF AND ISZERO PUSH2 0x344 JUMPI PUSH1 0x40 MLOAD PUSH32 0x8C379A000000000000000000000000000000000000000000000000000000000 DUP2 MSTORE PUSH1 0x4 ADD PUSH2 0x33B SWAP1 PUSH2 0x10C4 JUMP JUMPDEST PUSH1 0x40 MLOAD DUP1 SWAP2 SUB SWAP1 REVERT JUMPDEST PUSH1 0x1 PUSH1 0x3 PUSH1 0x0 DUP5 PUSH20 0xFFFFFFFFFFFFFFFFFFFFFFFFFFFFFFFFFFFFFFFF AND PUSH20 0xFFFFFFFFFFFFFFFFFFFFFFFFFFFFFFFFFFFFFFFF AND DUP2 MSTORE PUSH1 0x20 ADD SWAP1 DUP2 MSTORE PUSH1 0x20 ADD PUSH1 0x0 KECCAK256 DUP3 DUP2 SLOAD DUP2 LT PUSH2 0x397 JUMPI PUSH2 0x396 PUSH2 0x1476 JUMP JUMPDEST JUMPDEST SWAP1 PUSH1 0x0 MSTORE PUSH1 0x20 PUSH1 0x0 KECCAK256 SWAP1 PUSH1 0x4 MUL ADD PUSH1 0x3 ADD PUSH1 0x1 PUSH2 0x100 EXP DUP2 SLOAD DUP2 PUSH1 0xFF MUL NOT AND SWAP1 DUP4 ISZERO ISZERO MUL OR SWAP1 SSTORE POP DUP1 DUP1 PUSH2 0x3CA SWAP1 PUSH2 0x13CF JUMP JUMPDEST SWAP2 POP POP PUSH2 0x24A JUMP JUMPDEST POP POP JUMP JUMPDEST PUSH1 0x3 PUSH1 0x0 CALLER PUSH20 0xFFFFFFFFFFFFFFFFFFFFFFFFFFFFFFFFFFFFFFFF AND PUSH20 0xFFFFFFFFFFFFFFFFFFFFFFFFFFFFFFFFFFFFFFFF AND DUP2 MSTORE PUSH1 0x20 ADD SWAP1 DUP2 MSTORE PUSH1 0x20 ADD PUSH1 0x0 KECCAK256 PUSH1 0x40 MLOAD DUP1 PUSH1 0xA0 ADD PUSH1 0x40 MSTORE DUP1 PUSH1 0x2 SLOAD DUP2 MSTORE PUSH1 0x20 ADD DUP5 DUP2 MSTORE PUSH1 0x20 ADD DUP4 DUP2 MSTORE PUSH1 0x20 ADD PUSH1 0x0 ISZERO ISZERO DUP2 MSTORE PUSH1 0x20 ADD PUSH1 0x0 ISZERO ISZERO DUP2 MSTORE POP SWAP1 DUP1 PUSH1 0x1 DUP2 SLOAD ADD DUP1 DUP3 SSTORE DUP1 SWAP2 POP POP PUSH1 0x1 SWAP1 SUB SWAP1 PUSH1 0x0 MSTORE PUSH1 0x20 PUSH1 0x0 KECCAK256 SWAP1 PUSH1 0x4 MUL ADD PUSH1 0x0 SWAP1 SWAP2 SWAP1 SWAP2 SWAP1 SWAP2 POP PUSH1 0x0 DUP3 ADD MLOAD DUP2 PUSH1 0x0 ADD SSTORE PUSH1 0x20 DUP3 ADD MLOAD DUP2 PUSH1 0x1 ADD SWAP1 DUP1 MLOAD SWAP1 PUSH1 0x20 ADD SWAP1 PUSH2 0x493 SWAP3 SWAP2 SWAP1 PUSH2 0xD61 JUMP JUMPDEST POP PUSH1 0x40 DUP3 ADD MLOAD DUP2 PUSH1 0x2 ADD SSTORE PUSH1 0x60 DUP3 ADD MLOAD DUP2 PUSH1 0x3 ADD PUSH1 0x0 PUSH2 0x100 EXP DUP2 SLOAD DUP2 PUSH1 0xFF MUL NOT AND SWAP1 DUP4 ISZERO ISZERO MUL OR SWAP1 SSTORE POP PUSH1 0x80 DUP3 ADD MLOAD DUP2 PUSH1 0x3 ADD PUSH1 0x1 PUSH2 0x100 EXP DUP2 SLOAD DUP2 PUSH1 0xFF MUL NOT AND SWAP1 DUP4 ISZERO ISZERO MUL OR SWAP1 SSTORE POP POP POP PUSH1 0x2 PUSH1 0x0 DUP2 SLOAD DUP1 SWAP3 SWAP2 SWAP1 PUSH2 0x4F3 SWAP1 PUSH2 0x13CF JUMP JUMPDEST SWAP2 SWAP1 POP SSTORE POP POP POP JUMP JUMPDEST PUSH1 0x0 JUMPDEST PUSH1 0x3 PUSH1 0x0 CALLER PUSH20 0xFFFFFFFFFFFFFFFFFFFFFFFFFFFFFFFFFFFFFFFF AND PUSH20 0xFFFFFFFFFFFFFFFFFFFFFFFFFFFFFFFFFFFFFFFF AND DUP2 MSTORE PUSH1 0x20 ADD SWAP1 DUP2 MSTORE PUSH1 0x20 ADD PUSH1 0x0 KECCAK256 DUP1 SLOAD SWAP1 POP DUP2 LT ISZERO PUSH2 0x74F JUMPI PUSH1 0x3 PUSH1 0x0 CALLER PUSH20 0xFFFFFFFFFFFFFFFFFFFFFFFFFFFFFFFFFFFFFFFF AND PUSH20 0xFFFFFFFFFFFFFFFFFFFFFFFFFFFFFFFFFFFFFFFF AND DUP2 MSTORE PUSH1 0x20 ADD SWAP1 DUP2 MSTORE PUSH1 0x20 ADD PUSH1 0x0 KECCAK256 DUP2 DUP2 SLOAD DUP2 LT PUSH2 0x59A JUMPI PUSH2 0x599 PUSH2 0x1476 JUMP JUMPDEST JUMPDEST SWAP1 PUSH1 0x0 MSTORE PUSH1 0x20 PUSH1 0x0 KECCAK256 SWAP1 PUSH1 0x4 MUL ADD PUSH1 0x3 ADD PUSH1 0x1 SWAP1 SLOAD SWAP1 PUSH2 0x100 EXP SWAP1 DIV PUSH1 0xFF AND PUSH2 0x5F8 JUMPI PUSH1 0x40 MLOAD PUSH32 0x8C379A000000000000000000000000000000000000000000000000000000000 DUP2 MSTORE PUSH1 0x4 ADD PUSH2 0x5EF SWAP1 PUSH2 0x1144 JUMP JUMPDEST PUSH1 0x40 MLOAD DUP1 SWAP2 SUB SWAP1 REVERT JUMPDEST PUSH1 0x3 PUSH1 0x0 CALLER PUSH20 0xFFFFFFFFFFFFFFFFFFFFFFFFFFFFFFFFFFFFFFFF AND PUSH20 0xFFFFFFFFFFFFFFFFFFFFFFFFFFFFFFFFFFFFFFFF AND DUP2 MSTORE PUSH1 0x20 ADD SWAP1 DUP2 MSTORE PUSH1 0x20 ADD PUSH1 0x0 KECCAK256 DUP2 DUP2 SLOAD DUP2 LT PUSH2 0x649 JUMPI PUSH2 0x648 PUSH2 0x1476 JUMP JUMPDEST JUMPDEST SWAP1 PUSH1 0x0 MSTORE PUSH1 0x20 PUSH1 0x0 KECCAK256 SWAP1 PUSH1 0x4 MUL ADD PUSH1 0x3 ADD PUSH1 0x0 SWAP1 SLOAD SWAP1 PUSH2 0x100 EXP SWAP1 DIV PUSH1 0xFF AND ISZERO PUSH2 0x6A8 JUMPI PUSH1 0x40 MLOAD PUSH32 0x8C379A000000000000000000000000000000000000000000000000000000000 DUP2 MSTORE PUSH1 0x4 ADD PUSH2 0x69F SWAP1 PUSH2 0x1124 JUMP JUMPDEST PUSH1 0x40 MLOAD DUP1 SWAP2 SUB SWAP1 REVERT JUMPDEST PUSH1 0x1 PUSH1 0x3 PUSH1 0x0 CALLER PUSH20 0xFFFFFFFFFFFFFFFFFFFFFFFFFFFFFFFFFFFFFFFF AND PUSH20 0xFFFFFFFFFFFFFFFFFFFFFFFFFFFFFFFFFFFFFFFF AND DUP2 MSTORE PUSH1 0x20 ADD SWAP1 DUP2 MSTORE PUSH1 0x20 ADD PUSH1 0x0 KECCAK256 DUP3 DUP2 SLOAD DUP2 LT PUSH2 0x6FB JUMPI PUSH2 0x6FA PUSH2 0x1476 JUMP JUMPDEST JUMPDEST SWAP1 PUSH1 0x0 MSTORE PUSH1 0x20 PUSH1 0x0 KECCAK256 SWAP1 PUSH1 0x4 MUL ADD PUSH1 0x3 ADD PUSH1 0x0 PUSH2 0x100 EXP DUP2 SLOAD DUP2 PUSH1 0xFF MUL NOT AND SWAP1 DUP4 ISZERO ISZERO MUL OR SWAP1 SSTORE POP PUSH1 0x1 PUSH1 0x0 DUP1 DUP3 DUP3 SLOAD PUSH2 0x735 SWAP2 SWAP1 PUSH2 0x1282 JUMP JUMPDEST SWAP3 POP POP DUP2 SWAP1 SSTORE POP DUP1 DUP1 PUSH2 0x747 SWAP1 PUSH2 0x13CF JUMP JUMPDEST SWAP2 POP POP PUSH2 0x4FF JUMP JUMPDEST POP DUP1 PUSH1 0x4 PUSH1 0x0 ADD SLOAD EQ ISZERO PUSH2 0x77F JUMPI PUSH1 0x1 PUSH1 0x4 PUSH1 0x2 ADD PUSH1 0x0 DUP3 DUP3 SLOAD PUSH2 0x773 SWAP2 SWAP1 PUSH2 0x1282 JUMP JUMPDEST SWAP3 POP POP DUP2 SWAP1 SSTORE POP PUSH2 0x79D JUMP JUMPDEST PUSH1 0x1 PUSH1 0x7 PUSH1 0x2 ADD PUSH1 0x0 DUP3 DUP3 SLOAD PUSH2 0x795 SWAP2 SWAP1 PUSH2 0x1282 JUMP JUMPDEST SWAP3 POP POP DUP2 SWAP1 SSTORE POP JUMPDEST POP JUMP JUMPDEST PUSH1 0x0 DUP1 PUSH1 0x0 SWAP1 POP PUSH1 0x0 JUMPDEST PUSH1 0xA DUP1 SLOAD SWAP1 POP DUP2 LT ISZERO PUSH2 0x823 JUMPI DUP2 PUSH1 0xA DUP3 DUP2 SLOAD DUP2 LT PUSH2 0x7CC JUMPI PUSH2 0x7CB PUSH2 0x1476 JUMP JUMPDEST JUMPDEST SWAP1 PUSH1 0x0 MSTORE PUSH1 0x20 PUSH1 0x0 KECCAK256 SWAP1 PUSH1 0x3 MUL ADD PUSH1 0x2 ADD SLOAD GT ISZERO PUSH2 0x810 JUMPI PUSH1 0xA DUP2 DUP2 SLOAD DUP2 LT PUSH2 0x7F8 JUMPI PUSH2 0x7F7 PUSH2 0x1476 JUMP JUMPDEST JUMPDEST SWAP1 PUSH1 0x0 MSTORE PUSH1 0x20 PUSH1 0x0 KECCAK256 SWAP1 PUSH1 0x3 MUL ADD PUSH1 0x2 ADD SLOAD SWAP2 POP DUP1 SWAP3 POP JUMPDEST DUP1 DUP1 PUSH2 0x81B SWAP1 PUSH2 0x13CF JUMP JUMPDEST SWAP2 POP POP PUSH2 0x7AA JUMP JUMPDEST POP POP SWAP1 JUMP JUMPDEST PUSH1 0xA DUP2 DUP2 SLOAD DUP2 LT PUSH2 0x838 JUMPI PUSH1 0x0 DUP1 REVERT JUMPDEST SWAP1 PUSH1 0x0 MSTORE PUSH1 0x20 PUSH1 0x0 KECCAK256 SWAP1 PUSH1 0x3 MUL ADD PUSH1 0x0 SWAP2 POP SWAP1 POP DUP1 PUSH1 0x0 ADD SLOAD SWAP1 DUP1 PUSH1 0x1 ADD SLOAD SWAP1 DUP1 PUSH1 0x2 ADD SLOAD SWAP1 POP DUP4 JUMP JUMPDEST PUSH1 0x0 PUSH1 0x60 PUSH1 0x0 DUP1 PUSH1 0x0 DUP1 PUSH2 0x875 DUP8 PUSH2 0xC48 JUMP JUMPDEST SWAP1 POP PUSH1 0x3 PUSH1 0x0 CALLER PUSH20 0xFFFFFFFFFFFFFFFFFFFFFFFFFFFFFFFFFFFFFFFF AND PUSH20 0xFFFFFFFFFFFFFFFFFFFFFFFFFFFFFFFFFFFFFFFF AND DUP2 MSTORE PUSH1 0x20 ADD SWAP1 DUP2 MSTORE PUSH1 0x20 ADD PUSH1 0x0 KECCAK256 DUP2 DUP2 SLOAD DUP2 LT PUSH2 0x8C8 JUMPI PUSH2 0x8C7 PUSH2 0x1476 JUMP JUMPDEST JUMPDEST SWAP1 PUSH1 0x0 MSTORE PUSH1 0x20 PUSH1 0x0 KECCAK256 SWAP1 PUSH1 0x4 MUL ADD PUSH1 0x0 ADD SLOAD PUSH1 0x3 PUSH1 0x0 CALLER PUSH20 0xFFFFFFFFFFFFFFFFFFFFFFFFFFFFFFFFFFFFFFFF AND PUSH20 0xFFFFFFFFFFFFFFFFFFFFFFFFFFFFFFFFFFFFFFFF AND DUP2 MSTORE PUSH1 0x20 ADD SWAP1 DUP2 MSTORE PUSH1 0x20 ADD PUSH1 0x0 KECCAK256 DUP3 DUP2 SLOAD DUP2 LT PUSH2 0x92B JUMPI PUSH2 0x92A PUSH2 0x1476 JUMP JUMPDEST JUMPDEST SWAP1 PUSH1 0x0 MSTORE PUSH1 0x20 PUSH1 0x0 KECCAK256 SWAP1 PUSH1 0x4 MUL ADD PUSH1 0x1 ADD PUSH1 0x3 PUSH1 0x0 CALLER PUSH20 0xFFFFFFFFFFFFFFFFFFFFFFFFFFFFFFFFFFFFFFFF AND PUSH20 0xFFFFFFFFFFFFFFFFFFFFFFFFFFFFFFFFFFFFFFFF AND DUP2 MSTORE PUSH1 0x20 ADD SWAP1 DUP2 MSTORE PUSH1 0x20 ADD PUSH1 0x0 KECCAK256 DUP4 DUP2 SLOAD DUP2 LT PUSH2 0x98D JUMPI PUSH2 0x98C PUSH2 0x1476 JUMP JUMPDEST JUMPDEST SWAP1 PUSH1 0x0 MSTORE PUSH1 0x20 PUSH1 0x0 KECCAK256 SWAP1 PUSH1 0x4 MUL ADD PUSH1 0x2 ADD SLOAD PUSH1 0x3 PUSH1 0x0 CALLER PUSH20 0xFFFFFFFFFFFFFFFFFFFFFFFFFFFFFFFFFFFFFFFF AND PUSH20 0xFFFFFFFFFFFFFFFFFFFFFFFFFFFFFFFFFFFFFFFF AND DUP2 MSTORE PUSH1 0x20 ADD SWAP1 DUP2 MSTORE PUSH1 0x20 ADD PUSH1 0x0 KECCAK256 DUP5 DUP2 SLOAD DUP2 LT PUSH2 0x9F0 JUMPI PUSH2 0x9EF PUSH2 0x1476 JUMP JUMPDEST JUMPDEST SWAP1 PUSH1 0x0 MSTORE PUSH1 0x20 PUSH1 0x0 KECCAK256 SWAP1 PUSH1 0x4 MUL ADD PUSH1 0x3 ADD PUSH1 0x0 SWAP1 SLOAD SWAP1 PUSH2 0x100 EXP SWAP1 DIV PUSH1 0xFF AND PUSH1 0x3 PUSH1 0x0 CALLER PUSH20 0xFFFFFFFFFFFFFFFFFFFFFFFFFFFFFFFFFFFFFFFF AND PUSH20 0xFFFFFFFFFFFFFFFFFFFFFFFFFFFFFFFFFFFFFFFF AND DUP2 MSTORE PUSH1 0x20 ADD SWAP1 DUP2 MSTORE PUSH1 0x20 ADD PUSH1 0x0 KECCAK256 DUP6 DUP2 SLOAD DUP2 LT PUSH2 0xA60 JUMPI PUSH2 0xA5F PUSH2 0x1476 JUMP JUMPDEST JUMPDEST SWAP1 PUSH1 0x0 MSTORE PUSH1 0x20 PUSH1 0x0 KECCAK256 SWAP1 PUSH1 0x4 MUL ADD PUSH1 0x3 ADD PUSH1 0x1 SWAP1 SLOAD SWAP1 PUSH2 0x100 EXP SWAP1 DIV PUSH1 0xFF AND DUP4 DUP1 SLOAD PUSH2 0xA8B SWAP1 PUSH2 0x136C JUMP JUMPDEST DUP1 PUSH1 0x1F ADD PUSH1 0x20 DUP1 SWAP2 DIV MUL PUSH1 0x20 ADD PUSH1 0x40 MLOAD SWAP1 DUP2 ADD PUSH1 0x40 MSTORE DUP1 SWAP3 SWAP2 SWAP1 DUP2 DUP2 MSTORE PUSH1 0x20 ADD DUP3 DUP1 SLOAD PUSH2 0xAB7 SWAP1 PUSH2 0x136C JUMP JUMPDEST DUP1 ISZERO PUSH2 0xB04 JUMPI DUP1 PUSH1 0x1F LT PUSH2 0xAD9 JUMPI PUSH2 0x100 DUP1 DUP4 SLOAD DIV MUL DUP4 MSTORE SWAP2 PUSH1 0x20 ADD SWAP2 PUSH2 0xB04 JUMP JUMPDEST DUP3 ADD SWAP2 SWAP1 PUSH1 0x0 MSTORE PUSH1 0x20 PUSH1 0x0 KECCAK256 SWAP1 JUMPDEST DUP2 SLOAD DUP2 MSTORE SWAP1 PUSH1 0x1 ADD SWAP1 PUSH1 0x20 ADD DUP1 DUP4 GT PUSH2 0xAE7 JUMPI DUP3 SWAP1 SUB PUSH1 0x1F AND DUP3 ADD SWAP2 JUMPDEST POP POP POP POP POP SWAP4 POP SWAP6 POP SWAP6 POP SWAP6 POP SWAP6 POP SWAP6 POP POP SWAP2 SWAP4 SWAP6 SWAP1 SWAP3 SWAP5 POP JUMP JUMPDEST PUSH1 0x3 PUSH1 0x20 MSTORE DUP2 PUSH1 0x0 MSTORE PUSH1 0x40 PUSH1 0x0 KECCAK256 DUP2 DUP2 SLOAD DUP2 LT PUSH2 0xB3B JUMPI PUSH1 0x0 DUP1 REVERT JUMPDEST SWAP1 PUSH1 0x0 MSTORE PUSH1 0x20 PUSH1 0x0 KECCAK256 SWAP1 PUSH1 0x4 MUL ADD PUSH1 0x0 SWAP2 POP SWAP2 POP POP DUP1 PUSH1 0x0 ADD SLOAD SWAP1 DUP1 PUSH1 0x1 ADD DUP1 SLOAD PUSH2 0xB65 SWAP1 PUSH2 0x136C JUMP JUMPDEST DUP1 PUSH1 0x1F ADD PUSH1 0x20 DUP1 SWAP2 DIV MUL PUSH1 0x20 ADD PUSH1 0x40 MLOAD SWAP1 DUP2 ADD PUSH1 0x40 MSTORE DUP1 SWAP3 SWAP2 SWAP1 DUP2 DUP2 MSTORE PUSH1 0x20 ADD DUP3 DUP1 SLOAD PUSH2 0xB91 SWAP1 PUSH2 0x136C JUMP JUMPDEST DUP1 ISZERO PUSH2 0xBDE JUMPI DUP1 PUSH1 0x1F LT PUSH2 0xBB3 JUMPI PUSH2 0x100 DUP1 DUP4 SLOAD DIV MUL DUP4 MSTORE SWAP2 PUSH1 0x20 ADD SWAP2 PUSH2 0xBDE JUMP JUMPDEST DUP3 ADD SWAP2 SWAP1 PUSH1 0x0 MSTORE PUSH1 0x20 PUSH1 0x0 KECCAK256 SWAP1 JUMPDEST DUP2 SLOAD DUP2 MSTORE SWAP1 PUSH1 0x1 ADD SWAP1 PUSH1 0x20 ADD DUP1 DUP4 GT PUSH2 0xBC1 JUMPI DUP3 SWAP1 SUB PUSH1 0x1F AND DUP3 ADD SWAP2 JUMPDEST POP POP POP POP POP SWAP1 DUP1 PUSH1 0x2 ADD SLOAD SWAP1 DUP1 PUSH1 0x3 ADD PUSH1 0x0 SWAP1 SLOAD SWAP1 PUSH2 0x100 EXP SWAP1 DIV PUSH1 0xFF AND SWAP1 DUP1 PUSH1 0x3 ADD PUSH1 0x1 SWAP1 SLOAD SWAP1 PUSH2 0x100 EXP SWAP1 DIV PUSH1 0xFF AND SWAP1 POP DUP6 JUMP JUMPDEST PUSH1 0x0 PUSH1 0xA PUSH2 0xC20 PUSH2 0x7A0 JUMP JUMPDEST DUP2 SLOAD DUP2 LT PUSH2 0xC31 JUMPI PUSH2 0xC30 PUSH2 0x1476 JUMP JUMPDEST JUMPDEST SWAP1 PUSH1 0x0 MSTORE PUSH1 0x20 PUSH1 0x0 KECCAK256 SWAP1 PUSH1 0x3 MUL ADD PUSH1 0x1 ADD SLOAD SWAP1 POP SWAP1 JUMP JUMPDEST PUSH1 0x0 DUP1 PUSH1 0x0 SWAP1 POP JUMPDEST PUSH1 0x3 PUSH1 0x0 CALLER PUSH20 0xFFFFFFFFFFFFFFFFFFFFFFFFFFFFFFFFFFFFFFFF AND PUSH20 0xFFFFFFFFFFFFFFFFFFFFFFFFFFFFFFFFFFFFFFFF AND DUP2 MSTORE PUSH1 0x20 ADD SWAP1 DUP2 MSTORE PUSH1 0x20 ADD PUSH1 0x0 KECCAK256 DUP1 SLOAD SWAP1 POP DUP2 LT ISZERO PUSH2 0xD20 JUMPI DUP3 PUSH1 0x3 PUSH1 0x0 CALLER PUSH20 0xFFFFFFFFFFFFFFFFFFFFFFFFFFFFFFFFFFFFFFFF AND PUSH20 0xFFFFFFFFFFFFFFFFFFFFFFFFFFFFFFFFFFFFFFFF AND DUP2 MSTORE PUSH1 0x20 ADD SWAP1 DUP2 MSTORE PUSH1 0x20 ADD PUSH1 0x0 KECCAK256 DUP3 DUP2 SLOAD DUP2 LT PUSH2 0xCEC JUMPI PUSH2 0xCEB PUSH2 0x1476 JUMP JUMPDEST JUMPDEST SWAP1 PUSH1 0x0 MSTORE PUSH1 0x20 PUSH1 0x0 KECCAK256 SWAP1 PUSH1 0x4 MUL ADD PUSH1 0x0 ADD SLOAD EQ ISZERO PUSH2 0xD0D JUMPI DUP1 SWAP2 POP POP PUSH2 0xD5C JUMP JUMPDEST DUP1 DUP1 PUSH2 0xD18 SWAP1 PUSH2 0x13CF JUMP JUMPDEST SWAP2 POP POP PUSH2 0xC50 JUMP JUMPDEST POP PUSH1 0x40 MLOAD PUSH32 0x8C379A000000000000000000000000000000000000000000000000000000000 DUP2 MSTORE PUSH1 0x4 ADD PUSH2 0xD53 SWAP1 PUSH2 0x10E4 JUMP JUMPDEST PUSH1 0x40 MLOAD DUP1 SWAP2 SUB SWAP1 REVERT JUMPDEST SWAP2 SWAP1 POP JUMP JUMPDEST DUP3 DUP1 SLOAD PUSH2 0xD6D SWAP1 PUSH2 0x136C JUMP JUMPDEST SWAP1 PUSH1 0x0 MSTORE PUSH1 0x20 PUSH1 0x0 KECCAK256 SWAP1 PUSH1 0x1F ADD PUSH1 0x20 SWAP1 DIV DUP2 ADD SWAP3 DUP3 PUSH2 0xD8F JUMPI PUSH1 0x0 DUP6 SSTORE PUSH2 0xDD6 JUMP JUMPDEST DUP3 PUSH1 0x1F LT PUSH2 0xDA8 JUMPI DUP1 MLOAD PUSH1 0xFF NOT AND DUP4 DUP1 ADD OR DUP6 SSTORE PUSH2 0xDD6 JUMP JUMPDEST DUP3 DUP1 ADD PUSH1 0x1 ADD DUP6 SSTORE DUP3 ISZERO PUSH2 0xDD6 JUMPI SWAP2 DUP3 ADD JUMPDEST DUP3 DUP2 GT ISZERO PUSH2 0xDD5 JUMPI DUP3 MLOAD DUP3 SSTORE SWAP2 PUSH1 0x20 ADD SWAP2 SWAP1 PUSH1 0x1 ADD SWAP1 PUSH2 0xDBA JUMP JUMPDEST JUMPDEST POP SWAP1 POP PUSH2 0xDE3 SWAP2 SWAP1 PUSH2 0xDE7 JUMP JUMPDEST POP SWAP1 JUMP JUMPDEST JUMPDEST DUP1 DUP3 GT ISZERO PUSH2 0xE00 JUMPI PUSH1 0x0 DUP2 PUSH1 0x0 SWAP1 SSTORE POP PUSH1 0x1 ADD PUSH2 0xDE8 JUMP JUMPDEST POP SWAP1 JUMP JUMPDEST PUSH1 0x0 PUSH2 0xE17 PUSH2 0xE12 DUP5 PUSH2 0x1235 JUMP JUMPDEST PUSH2 0x1210 JUMP JUMPDEST SWAP1 POP DUP3 DUP2 MSTORE PUSH1 0x20 DUP2 ADD DUP5 DUP5 DUP5 ADD GT ISZERO PUSH2 0xE33 JUMPI PUSH2 0xE32 PUSH2 0x14D9 JUMP JUMPDEST JUMPDEST PUSH2 0xE3E DUP5 DUP3 DUP6 PUSH2 0x132A JUMP JUMPDEST POP SWAP4 SWAP3 POP POP POP JUMP JUMPDEST PUSH1 0x0 DUP2 CALLDATALOAD SWAP1 POP PUSH2 0xE55 DUP2 PUSH2 0x15EC JUMP JUMPDEST SWAP3 SWAP2 POP POP JUMP JUMPDEST PUSH1 0x0 DUP3 PUSH1 0x1F DUP4 ADD SLT PUSH2 0xE70 JUMPI PUSH2 0xE6F PUSH2 0x14D4 JUMP JUMPDEST JUMPDEST DUP2 CALLDATALOAD PUSH2 0xE80 DUP5 DUP3 PUSH1 0x20 DUP7 ADD PUSH2 0xE04 JUMP JUMPDEST SWAP2 POP POP SWAP3 SWAP2 POP POP JUMP JUMPDEST PUSH1 0x0 DUP2 CALLDATALOAD SWAP1 POP PUSH2 0xE98 DUP2 PUSH2 0x1603 JUMP JUMPDEST SWAP3 SWAP2 POP POP JUMP JUMPDEST PUSH1 0x0 PUSH1 0x20 DUP3 DUP5 SUB SLT ISZERO PUSH2 0xEB4 JUMPI PUSH2 0xEB3 PUSH2 0x14E3 JUMP JUMPDEST JUMPDEST PUSH1 0x0 PUSH2 0xEC2 DUP5 DUP3 DUP6 ADD PUSH2 0xE46 JUMP JUMPDEST SWAP2 POP POP SWAP3 SWAP2 POP POP JUMP JUMPDEST PUSH1 0x0 DUP1 PUSH1 0x40 DUP4 DUP6 SUB SLT ISZERO PUSH2 0xEE2 JUMPI PUSH2 0xEE1 PUSH2 0x14E3 JUMP JUMPDEST JUMPDEST PUSH1 0x0 PUSH2 0xEF0 DUP6 DUP3 DUP7 ADD PUSH2 0xE46 JUMP JUMPDEST SWAP3 POP POP PUSH1 0x20 PUSH2 0xF01 DUP6 DUP3 DUP7 ADD PUSH2 0xE89 JUMP JUMPDEST SWAP2 POP POP SWAP3 POP SWAP3 SWAP1 POP JUMP JUMPDEST PUSH1 0x0 DUP1 PUSH1 0x40 DUP4 DUP6 SUB SLT ISZERO PUSH2 0xF22 JUMPI PUSH2 0xF21 PUSH2 0x14E3 JUMP JUMPDEST JUMPDEST PUSH1 0x0 DUP4 ADD CALLDATALOAD PUSH8 0xFFFFFFFFFFFFFFFF DUP2 GT ISZERO PUSH2 0xF40 JUMPI PUSH2 0xF3F PUSH2 0x14DE JUMP JUMPDEST JUMPDEST PUSH2 0xF4C DUP6 DUP3 DUP7 ADD PUSH2 0xE5B JUMP JUMPDEST SWAP3 POP POP PUSH1 0x20 PUSH2 0xF5D DUP6 DUP3 DUP7 ADD PUSH2 0xE89 JUMP JUMPDEST SWAP2 POP POP SWAP3 POP SWAP3 SWAP1 POP JUMP JUMPDEST PUSH1 0x0 PUSH1 0x20 DUP3 DUP5 SUB SLT ISZERO PUSH2 0xF7D JUMPI PUSH2 0xF7C PUSH2 0x14E3 JUMP JUMPDEST JUMPDEST PUSH1 0x0 PUSH2 0xF8B DUP5 DUP3 DUP6 ADD PUSH2 0xE89 JUMP JUMPDEST SWAP2 POP POP SWAP3 SWAP2 POP POP JUMP JUMPDEST PUSH2 0xF9D DUP2 PUSH2 0x12EA JUMP JUMPDEST DUP3 MSTORE POP POP JUMP JUMPDEST PUSH2 0xFAC DUP2 PUSH2 0x12F6 JUMP JUMPDEST DUP3 MSTORE POP POP JUMP JUMPDEST PUSH1 0x0 PUSH2 0xFBD DUP3 PUSH2 0x1266 JUMP JUMPDEST PUSH2 0xFC7 DUP2 DUP6 PUSH2 0x1271 JUMP JUMPDEST SWAP4 POP PUSH2 0xFD7 DUP2 DUP6 PUSH1 0x20 DUP7 ADD PUSH2 0x1339 JUMP JUMPDEST PUSH2 0xFE0 DUP2 PUSH2 0x14E8 JUMP JUMPDEST DUP5 ADD SWAP2 POP POP SWAP3 SWAP2 POP POP JUMP JUMPDEST PUSH1 0x0 PUSH2 0xFF8 PUSH1 0x19 DUP4 PUSH2 0x1271 JUMP JUMPDEST SWAP2 POP PUSH2 0x1003 DUP3 PUSH2 0x14F9 JUMP JUMPDEST PUSH1 0x20 DUP3 ADD SWAP1 POP SWAP2 SWAP1 POP JUMP JUMPDEST PUSH1 0x0 PUSH2 0x101B PUSH1 0x16 DUP4 PUSH2 0x1271 JUMP JUMPDEST SWAP2 POP PUSH2 0x1026 DUP3 PUSH2 0x1522 JUMP JUMPDEST PUSH1 0x20 DUP3 ADD SWAP1 POP SWAP2 SWAP1 POP JUMP JUMPDEST PUSH1 0x0 PUSH2 0x103E PUSH1 0x1B DUP4 PUSH2 0x1271 JUMP JUMPDEST SWAP2 POP PUSH2 0x1049 DUP3 PUSH2 0x154B JUMP JUMPDEST PUSH1 0x20 DUP3 ADD SWAP1 POP SWAP2 SWAP1 POP JUMP JUMPDEST PUSH1 0x0 PUSH2 0x1061 PUSH1 0x26 DUP4 PUSH2 0x1271 JUMP JUMPDEST SWAP2 POP PUSH2 0x106C DUP3 PUSH2 0x1574 JUMP JUMPDEST PUSH1 0x40 DUP3 ADD SWAP1 POP SWAP2 SWAP1 POP JUMP JUMPDEST PUSH1 0x0 PUSH2 0x1084 PUSH1 0x19 DUP4 PUSH2 0x1271 JUMP JUMPDEST SWAP2 POP PUSH2 0x108F DUP3 PUSH2 0x15C3 JUMP JUMPDEST PUSH1 0x20 DUP3 ADD SWAP1 POP SWAP2 SWAP1 POP JUMP JUMPDEST PUSH2 0x10A3 DUP2 PUSH2 0x1320 JUMP JUMPDEST DUP3 MSTORE POP POP JUMP JUMPDEST PUSH1 0x0 PUSH1 0x20 DUP3 ADD SWAP1 POP PUSH2 0x10BE PUSH1 0x0 DUP4 ADD DUP5 PUSH2 0xFA3 JUMP JUMPDEST SWAP3 SWAP2 POP POP JUMP JUMPDEST PUSH1 0x0 PUSH1 0x20 DUP3 ADD SWAP1 POP DUP2 DUP2 SUB PUSH1 0x0 DUP4 ADD MSTORE PUSH2 0x10DD DUP2 PUSH2 0xFEB JUMP JUMPDEST SWAP1 POP SWAP2 SWAP1 POP JUMP JUMPDEST PUSH1 0x0 PUSH1 0x20 DUP3 ADD SWAP1 POP DUP2 DUP2 SUB PUSH1 0x0 DUP4 ADD MSTORE PUSH2 0x10FD DUP2 PUSH2 0x100E JUMP JUMPDEST SWAP1 POP SWAP2 SWAP1 POP JUMP JUMPDEST PUSH1 0x0 PUSH1 0x20 DUP3 ADD SWAP1 POP DUP2 DUP2 SUB PUSH1 0x0 DUP4 ADD MSTORE PUSH2 0x111D DUP2 PUSH2 0x1031 JUMP JUMPDEST SWAP1 POP SWAP2 SWAP1 POP JUMP JUMPDEST PUSH1 0x0 PUSH1 0x20 DUP3 ADD SWAP1 POP DUP2 DUP2 SUB PUSH1 0x0 DUP4 ADD MSTORE PUSH2 0x113D DUP2 PUSH2 0x1054 JUMP JUMPDEST SWAP1 POP SWAP2 SWAP1 POP JUMP JUMPDEST PUSH1 0x0 PUSH1 0x20 DUP3 ADD SWAP1 POP DUP2 DUP2 SUB PUSH1 0x0 DUP4 ADD MSTORE PUSH2 0x115D DUP2 PUSH2 0x1077 JUMP JUMPDEST SWAP1 POP SWAP2 SWAP1 POP JUMP JUMPDEST PUSH1 0x0 PUSH1 0x20 DUP3 ADD SWAP1 POP PUSH2 0x1179 PUSH1 0x0 DUP4 ADD DUP5 PUSH2 0x109A JUMP JUMPDEST SWAP3 SWAP2 POP POP JUMP JUMPDEST PUSH1 0x0 PUSH1 0x60 DUP3 ADD SWAP1 POP PUSH2 0x1194 PUSH1 0x0 DUP4 ADD DUP7 PUSH2 0x109A JUMP JUMPDEST PUSH2 0x11A1 PUSH1 0x20 DUP4 ADD DUP6 PUSH2 0xFA3 JUMP JUMPDEST PUSH2 0x11AE PUSH1 0x40 DUP4 ADD DUP5 PUSH2 0x109A JUMP JUMPDEST SWAP5 SWAP4 POP POP POP POP JUMP JUMPDEST PUSH1 0x0 PUSH1 0xA0 DUP3 ADD SWAP1 POP PUSH2 0x11CB PUSH1 0x0 DUP4 ADD DUP9 PUSH2 0x109A JUMP JUMPDEST DUP2 DUP2 SUB PUSH1 0x20 DUP4 ADD MSTORE PUSH2 0x11DD DUP2 DUP8 PUSH2 0xFB2 JUMP JUMPDEST SWAP1 POP PUSH2 0x11EC PUSH1 0x40 DUP4 ADD DUP7 PUSH2 0x109A JUMP JUMPDEST PUSH2 0x11F9 PUSH1 0x60 DUP4 ADD DUP6 PUSH2 0xF94 JUMP JUMPDEST PUSH2 0x1206 PUSH1 0x80 DUP4 ADD DUP5 PUSH2 0xF94 JUMP JUMPDEST SWAP7 SWAP6 POP POP POP POP POP POP JUMP JUMPDEST PUSH1 0x0 PUSH2 0x121A PUSH2 0x122B JUMP JUMPDEST SWAP1 POP PUSH2 0x1226 DUP3 DUP3 PUSH2 0x139E JUMP JUMPDEST SWAP2 SWAP1 POP JUMP JUMPDEST PUSH1 0x0 PUSH1 0x40 MLOAD SWAP1 POP SWAP1 JUMP JUMPDEST PUSH1 0x0 PUSH8 0xFFFFFFFFFFFFFFFF DUP3 GT ISZERO PUSH2 0x1250 JUMPI PUSH2 0x124F PUSH2 0x14A5 JUMP JUMPDEST JUMPDEST PUSH2 0x1259 DUP3 PUSH2 0x14E8 JUMP JUMPDEST SWAP1 POP PUSH1 0x20 DUP2 ADD SWAP1 POP SWAP2 SWAP1 POP JUMP JUMPDEST PUSH1 0x0 DUP2 MLOAD SWAP1 POP SWAP2 SWAP1 POP JUMP JUMPDEST PUSH1 0x0 DUP3 DUP3 MSTORE PUSH1 0x20 DUP3 ADD SWAP1 POP SWAP3 SWAP2 POP POP JUMP JUMPDEST PUSH1 0x0 PUSH2 0x128D DUP3 PUSH2 0x1320 JUMP JUMPDEST SWAP2 POP PUSH2 0x1298 DUP4 PUSH2 0x1320 JUMP JUMPDEST SWAP3 POP DUP3 PUSH32 0xFFFFFFFFFFFFFFFFFFFFFFFFFFFFFFFFFFFFFFFFFFFFFFFFFFFFFFFFFFFFFFFF SUB DUP3 GT ISZERO PUSH2 0x12CD JUMPI PUSH2 0x12CC PUSH2 0x1418 JUMP JUMPDEST JUMPDEST DUP3 DUP3 ADD SWAP1 POP SWAP3 SWAP2 POP POP JUMP JUMPDEST PUSH1 0x0 PUSH2 0x12E3 DUP3 PUSH2 0x1300 JUMP JUMPDEST SWAP1 POP SWAP2 SWAP1 POP JUMP JUMPDEST PUSH1 0x0 DUP2 ISZERO ISZERO SWAP1 POP SWAP2 SWAP1 POP JUMP JUMPDEST PUSH1 0x0 DUP2 SWAP1 POP SWAP2 SWAP1 POP JUMP JUMPDEST PUSH1 0x0 PUSH20 0xFFFFFFFFFFFFFFFFFFFFFFFFFFFFFFFFFFFFFFFF DUP3 AND SWAP1 POP SWAP2 SWAP1 POP JUMP JUMPDEST PUSH1 0x0 DUP2 SWAP1 POP SWAP2 SWAP1 POP JUMP JUMPDEST DUP3 DUP2 DUP4 CALLDATACOPY PUSH1 0x0 DUP4 DUP4 ADD MSTORE POP POP POP JUMP JUMPDEST PUSH1 0x0 JUMPDEST DUP4 DUP2 LT ISZERO PUSH2 0x1357 JUMPI DUP1 DUP3 ADD MLOAD DUP2 DUP5 ADD MSTORE PUSH1 0x20 DUP2 ADD SWAP1 POP PUSH2 0x133C JUMP JUMPDEST DUP4 DUP2 GT ISZERO PUSH2 0x1366 JUMPI PUSH1 0x0 DUP5 DUP5 ADD MSTORE JUMPDEST POP POP POP POP JUMP JUMPDEST PUSH1 0x0 PUSH1 0x2 DUP3 DIV SWAP1 POP PUSH1 0x1 DUP3 AND DUP1 PUSH2 0x1384 JUMPI PUSH1 0x7F DUP3 AND SWAP2 POP JUMPDEST PUSH1 0x20 DUP3 LT DUP2 EQ ISZERO PUSH2 0x1398 JUMPI PUSH2 0x1397 PUSH2 0x1447 JUMP JUMPDEST JUMPDEST POP SWAP2 SWAP1 POP JUMP JUMPDEST PUSH2 0x13A7 DUP3 PUSH2 0x14E8 JUMP JUMPDEST DUP2 ADD DUP2 DUP2 LT PUSH8 0xFFFFFFFFFFFFFFFF DUP3 GT OR ISZERO PUSH2 0x13C6 JUMPI PUSH2 0x13C5 PUSH2 0x14A5 JUMP JUMPDEST JUMPDEST DUP1 PUSH1 0x40 MSTORE POP POP POP JUMP JUMPDEST PUSH1 0x0 PUSH2 0x13DA DUP3 PUSH2 0x1320 JUMP JUMPDEST SWAP2 POP PUSH32 0xFFFFFFFFFFFFFFFFFFFFFFFFFFFFFFFFFFFFFFFFFFFFFFFFFFFFFFFFFFFFFFFF DUP3 EQ ISZERO PUSH2 0x140D JUMPI PUSH2 0x140C PUSH2 0x1418 JUMP JUMPDEST JUMPDEST PUSH1 0x1 DUP3 ADD SWAP1 POP SWAP2 SWAP1 POP JUMP JUMPDEST PUSH32 0x4E487B7100000000000000000000000000000000000000000000000000000000 PUSH1 0x0 MSTORE PUSH1 0x11 PUSH1 0x4 MSTORE PUSH1 0x24 PUSH1 0x0 REVERT JUMPDEST PUSH32 0x4E487B7100000000000000000000000000000000000000000000000000000000 PUSH1 0x0 MSTORE PUSH1 0x22 PUSH1 0x4 MSTORE PUSH1 0x24 PUSH1 0x0 REVERT JUMPDEST PUSH32 0x4E487B7100000000000000000000000000000000000000000000000000000000 PUSH1 0x0 MSTORE PUSH1 0x32 PUSH1 0x4 MSTORE PUSH1 0x24 PUSH1 0x0 REVERT JUMPDEST PUSH32 0x4E487B7100000000000000000000000000000000000000000000000000000000 PUSH1 0x0 MSTORE PUSH1 0x41 PUSH1 0x4 MSTORE PUSH1 0x24 PUSH1 0x0 REVERT JUMPDEST PUSH1 0x0 DUP1 REVERT JUMPDEST PUSH1 0x0 DUP1 REVERT JUMPDEST PUSH1 0x0 DUP1 REVERT JUMPDEST PUSH1 0x0 DUP1 REVERT JUMPDEST PUSH1 0x0 PUSH1 0x1F NOT PUSH1 0x1F DUP4 ADD AND SWAP1 POP SWAP2 SWAP1 POP JUMP JUMPDEST PUSH32 0x5961207469656E6573206465726563686F206120766F74617200000000000000 PUSH1 0x0 DUP3 ADD MSTORE POP JUMP JUMPDEST PUSH32 0x566F74616E7465206E6F20656E636F6E747261646F2100000000000000000000 PUSH1 0x0 DUP3 ADD MSTORE POP JUMP JUMPDEST PUSH32 0x5475206E6F206572657320656C2050726F706965746172696F20210000000000 PUSH1 0x0 DUP3 ADD MSTORE POP JUMP JUMPDEST PUSH32 0x596120766F74617374652C206E6F2070756564657320766F6C76657220612068 PUSH1 0x0 DUP3 ADD MSTORE PUSH32 0x616365726C6F0000000000000000000000000000000000000000000000000000 PUSH1 0x20 DUP3 ADD MSTORE POP JUMP JUMPDEST PUSH32 0x4E6F207469656E6573206465726563686F206120566F74617200000000000000 PUSH1 0x0 DUP3 ADD MSTORE POP JUMP JUMPDEST PUSH2 0x15F5 DUP2 PUSH2 0x12D8 JUMP JUMPDEST DUP2 EQ PUSH2 0x1600 JUMPI PUSH1 0x0 DUP1 REVERT JUMPDEST POP JUMP JUMPDEST PUSH2 0x160C DUP2 PUSH2 0x1320 JUMP JUMPDEST DUP2 EQ PUSH2 0x1617 JUMPI PUSH1 0x0 DUP1 REVERT JUMPDEST POP JUMP INVALID LOG2 PUSH5 0x6970667358 0x22 SLT KECCAK256 PUSH22 0x485735C03A5F6C97220017DCFC5145E1135FA0AE8748 DUP14 0x2F 0xD MSTORE SELFBALANCE 0xD5 CALLVALUE DIV GASPRICE PUSH5 0x736F6C6343 STOP ADDMOD SMOD STOP CALLER "
				},
				"gasEstimates": {
					"creation": {
						"codeDepositCost": "1142400",
						"executionCost": "151235",
						"totalCost": "1293635"
					},
					"external": {
						"leerVotante(uint256)": "infinite",
						"nombrePropuestaGanadora()": "infinite",
						"propuestaGanadora()": "infinite",
						"propuestas(uint256)": "infinite",
						"registroVotante(string,uint256)": "infinite",
						"validarDerechoVotar(address)": "infinite",
						"votantes(address,uint256)": "infinite",
						"votar(uint256)": "infinite"
					},
					"internal": {
						"findIndex(uint256)": "infinite"
					}
				},
				"methodIdentifiers": {
					"leerVotante(uint256)": "8bdeb3c5",
					"nombrePropuestaGanadora()": "ae90029b",
					"propuestaGanadora()": "27d9b2a5",
					"propuestas(uint256)": "6097e216",
					"registroVotante(string,uint256)": "20bad571",
					"validarDerechoVotar(address)": "208d748f",
					"votantes(address,uint256)": "8d8aab9d",
					"votar(uint256)": "21606831"
				}
			},
			"storageLayout": {
				"storage": [
					{
						"astId": 4,
						"contract": "votacion.sol:Voting",
						"label": "totalVotos",
						"offset": 0,
						"slot": "0",
						"type": "t_uint256"
					},
					{
						"astId": 6,
						"contract": "votacion.sol:Voting",
						"label": "propietario",
						"offset": 0,
						"slot": "1",
						"type": "t_address"
					},
					{
						"astId": 9,
						"contract": "votacion.sol:Voting",
						"label": "nextId",
						"offset": 0,
						"slot": "2",
						"type": "t_uint256"
					},
					{
						"astId": 47,
						"contract": "votacion.sol:Voting",
						"label": "votantes",
						"offset": 0,
						"slot": "3",
						"type": "t_mapping(t_address,t_array(t_struct(votante)41_storage)dyn_storage)"
					},
					{
						"astId": 187,
						"contract": "votacion.sol:Voting",
						"label": "propuestaUno",
						"offset": 0,
						"slot": "4",
						"type": "t_struct(propuesta)179_storage"
					},
					{
						"astId": 195,
						"contract": "votacion.sol:Voting",
						"label": "propuestaDos",
						"offset": 0,
						"slot": "7",
						"type": "t_struct(propuesta)179_storage"
					},
					{
						"astId": 199,
						"contract": "votacion.sol:Voting",
						"label": "propuestas",
						"offset": 0,
						"slot": "10",
						"type": "t_array(t_struct(propuesta)179_storage)dyn_storage"
					}
				],
				"types": {
					"t_address": {
						"encoding": "inplace",
						"label": "address",
						"numberOfBytes": "20"
					},
					"t_array(t_struct(propuesta)179_storage)dyn_storage": {
						"base": "t_struct(propuesta)179_storage",
						"encoding": "dynamic_array",
						"label": "struct Voting.propuesta[]",
						"numberOfBytes": "32"
					},
					"t_array(t_struct(votante)41_storage)dyn_storage": {
						"base": "t_struct(votante)41_storage",
						"encoding": "dynamic_array",
						"label": "struct Voting.votante[]",
						"numberOfBytes": "32"
					},
					"t_bool": {
						"encoding": "inplace",
						"label": "bool",
						"numberOfBytes": "1"
					},
					"t_bytes32": {
						"encoding": "inplace",
						"label": "bytes32",
						"numberOfBytes": "32"
					},
					"t_mapping(t_address,t_array(t_struct(votante)41_storage)dyn_storage)": {
						"encoding": "mapping",
						"key": "t_address",
						"label": "mapping(address => struct Voting.votante[])",
						"numberOfBytes": "32",
						"value": "t_array(t_struct(votante)41_storage)dyn_storage"
					},
					"t_string_storage": {
						"encoding": "bytes",
						"label": "string",
						"numberOfBytes": "32"
					},
					"t_struct(propuesta)179_storage": {
						"encoding": "inplace",
						"label": "struct Voting.propuesta",
						"members": [
							{
								"astId": 174,
								"contract": "votacion.sol:Voting",
								"label": "id",
								"offset": 0,
								"slot": "0",
								"type": "t_uint256"
							},
							{
								"astId": 176,
								"contract": "votacion.sol:Voting",
								"label": "name",
								"offset": 0,
								"slot": "1",
								"type": "t_bytes32"
							},
							{
								"astId": 178,
								"contract": "votacion.sol:Voting",
								"label": "votos",
								"offset": 0,
								"slot": "2",
								"type": "t_uint256"
							}
						],
						"numberOfBytes": "96"
					},
					"t_struct(votante)41_storage": {
						"encoding": "inplace",
						"label": "struct Voting.votante",
						"members": [
							{
								"astId": 32,
								"contract": "votacion.sol:Voting",
								"label": "identificacion",
								"offset": 0,
								"slot": "0",
								"type": "t_uint256"
							},
							{
								"astId": 34,
								"contract": "votacion.sol:Voting",
								"label": "nombre",
								"offset": 0,
								"slot": "1",
								"type": "t_string_storage"
							},
							{
								"astId": 36,
								"contract": "votacion.sol:Voting",
								"label": "edad",
								"offset": 0,
								"slot": "2",
								"type": "t_uint256"
							},
							{
								"astId": 38,
								"contract": "votacion.sol:Voting",
								"label": "yaVoto",
								"offset": 0,
								"slot": "3",
								"type": "t_bool"
							},
							{
								"astId": 40,
								"contract": "votacion.sol:Voting",
								"label": "puedeVotar",
								"offset": 1,
								"slot": "3",
								"type": "t_bool"
							}
						],
						"numberOfBytes": "128"
					},
					"t_uint256": {
						"encoding": "inplace",
						"label": "uint256",
						"numberOfBytes": "32"
					}
				}
			},
			"userdoc": {
				"kind": "user",
				"methods": {},
				"version": 1
			}
		}
	}
}